{
  "_format": "hh-sol-artifact-1",
  "contractName": "ReBakedDAO",
  "sourceName": "contracts/ReBakedDAO.sol",
  "abi": [
    {
      "anonymous": false,
      "inputs": [
        {
          "indexed": true,
          "internalType": "bytes32",
          "name": "projectId",
          "type": "bytes32"
        },
        {
          "indexed": true,
          "internalType": "bytes32",
          "name": "packageId",
          "type": "bytes32"
        },
        {
          "indexed": false,
          "internalType": "address",
          "name": "collaborator",
          "type": "address"
        },
        {
          "indexed": false,
          "internalType": "uint256",
          "name": "mgp",
          "type": "uint256"
        }
      ],
      "name": "AddedCollaborator",
      "type": "event"
    },
    {
      "anonymous": false,
      "inputs": [
        {
          "indexed": true,
          "internalType": "bytes32",
          "name": "projectId",
          "type": "bytes32"
        },
        {
          "indexed": false,
          "internalType": "bytes32[]",
          "name": "packageIds",
          "type": "bytes32[]"
        },
        {
          "indexed": true,
          "internalType": "address",
          "name": "observer",
          "type": "address"
        }
      ],
      "name": "AddedObserver",
      "type": "event"
    },
    {
      "anonymous": false,
      "inputs": [
        {
          "indexed": true,
          "internalType": "bytes32",
          "name": "projectId",
          "type": "bytes32"
        },
        {
          "indexed": true,
          "internalType": "bytes32",
          "name": "packageId",
          "type": "bytes32"
        },
        {
          "indexed": false,
          "internalType": "address",
          "name": "collaborator",
          "type": "address"
        }
      ],
      "name": "ApprovedCollaborator",
      "type": "event"
    },
    {
      "anonymous": false,
      "inputs": [
        {
          "indexed": true,
          "internalType": "bytes32",
          "name": "projectId",
          "type": "bytes32"
        }
      ],
      "name": "ApprovedProject",
      "type": "event"
    },
    {
      "anonymous": false,
      "inputs": [
        {
          "indexed": true,
          "internalType": "bytes32",
          "name": "projectId",
          "type": "bytes32"
        },
        {
          "indexed": true,
          "internalType": "bytes32",
          "name": "packageId",
          "type": "bytes32"
        },
        {
          "indexed": true,
          "internalType": "uint256",
          "name": "revertedBudget",
          "type": "uint256"
        }
      ],
      "name": "CanceledPackage",
      "type": "event"
    },
    {
      "anonymous": false,
      "inputs": [
        {
          "indexed": true,
          "internalType": "bytes32",
          "name": "projectId",
          "type": "bytes32"
        },
        {
          "indexed": true,
          "internalType": "bytes32",
          "name": "packageId",
          "type": "bytes32"
        },
        {
          "indexed": false,
          "internalType": "uint256",
          "name": "budget",
          "type": "uint256"
        },
        {
          "indexed": false,
          "internalType": "uint256",
          "name": "bonus",
          "type": "uint256"
        }
      ],
      "name": "CreatedPackage",
      "type": "event"
    },
    {
      "anonymous": false,
      "inputs": [
        {
          "indexed": true,
          "internalType": "bytes32",
          "name": "projectId",
          "type": "bytes32"
        },
        {
          "indexed": false,
          "internalType": "address",
          "name": "initiator",
          "type": "address"
        },
        {
          "indexed": false,
          "internalType": "address",
          "name": "token",
          "type": "address"
        },
        {
          "indexed": false,
          "internalType": "uint256",
          "name": "budget",
          "type": "uint256"
        }
      ],
      "name": "CreatedProject",
      "type": "event"
    },
    {
      "anonymous": false,
      "inputs": [
        {
          "indexed": true,
          "internalType": "bytes32",
          "name": "projectId_",
          "type": "bytes32"
        },
        {
          "indexed": true,
          "internalType": "bytes32",
          "name": "packageId_",
          "type": "bytes32"
        },
        {
          "indexed": false,
          "internalType": "address",
          "name": "collaborator_",
          "type": "address"
        }
      ],
      "name": "DefendedRemoval",
      "type": "event"
    },
    {
      "anonymous": false,
      "inputs": [
        {
          "indexed": true,
          "internalType": "bytes32",
          "name": "projectId",
          "type": "bytes32"
        },
        {
          "indexed": true,
          "internalType": "bytes32",
          "name": "packageId",
          "type": "bytes32"
        },
        {
          "indexed": true,
          "internalType": "uint256",
          "name": "budgetLeft",
          "type": "uint256"
        }
      ],
      "name": "FinishedPackage",
      "type": "event"
    },
    {
      "anonymous": false,
      "inputs": [
        {
          "indexed": true,
          "internalType": "bytes32",
          "name": "projectId",
          "type": "bytes32"
        }
      ],
      "name": "FinishedProject",
      "type": "event"
    },
    {
      "anonymous": false,
      "inputs": [
        {
          "indexed": false,
          "internalType": "uint8",
          "name": "version",
          "type": "uint8"
        }
      ],
      "name": "Initialized",
      "type": "event"
    },
    {
      "anonymous": false,
      "inputs": [
        {
          "indexed": true,
          "internalType": "address",
          "name": "previousOwner",
          "type": "address"
        },
        {
          "indexed": true,
          "internalType": "address",
          "name": "newOwner",
          "type": "address"
        }
      ],
      "name": "OwnershipTransferred",
      "type": "event"
    },
    {
      "anonymous": false,
      "inputs": [
        {
          "indexed": true,
          "internalType": "bytes32",
          "name": "projectId",
          "type": "bytes32"
        },
        {
          "indexed": true,
          "internalType": "bytes32",
          "name": "packageId",
          "type": "bytes32"
        },
        {
          "indexed": false,
          "internalType": "address",
          "name": "collaborator",
          "type": "address"
        },
        {
          "indexed": false,
          "internalType": "uint256",
          "name": "amount",
          "type": "uint256"
        }
      ],
      "name": "PaidBonus",
      "type": "event"
    },
    {
      "anonymous": false,
      "inputs": [
        {
          "indexed": true,
          "internalType": "bytes32",
          "name": "projectId",
          "type": "bytes32"
        },
        {
          "indexed": true,
          "internalType": "bytes32",
          "name": "packageId",
          "type": "bytes32"
        },
        {
          "indexed": false,
          "internalType": "address",
          "name": "collaborator",
          "type": "address"
        },
        {
          "indexed": false,
          "internalType": "uint256",
          "name": "amount",
          "type": "uint256"
        }
      ],
      "name": "PaidMgp",
      "type": "event"
    },
    {
      "anonymous": false,
      "inputs": [
        {
          "indexed": true,
          "internalType": "bytes32",
          "name": "projectId",
          "type": "bytes32"
        },
        {
          "indexed": true,
          "internalType": "bytes32",
          "name": "packageId",
          "type": "bytes32"
        },
        {
          "indexed": false,
          "internalType": "address",
          "name": "collaborator",
          "type": "address"
        },
        {
          "indexed": false,
          "internalType": "uint256",
          "name": "amount",
          "type": "uint256"
        }
      ],
      "name": "PaidObserverFee",
      "type": "event"
    },
    {
      "anonymous": false,
      "inputs": [
        {
          "indexed": true,
          "internalType": "bytes32",
          "name": "projectId_",
          "type": "bytes32"
        },
        {
          "indexed": true,
          "internalType": "bytes32",
          "name": "packageId_",
          "type": "bytes32"
        },
        {
          "indexed": false,
          "internalType": "address",
          "name": "collaborator_",
          "type": "address"
        }
      ],
      "name": "RemovedCollaborator",
      "type": "event"
    },
    {
      "anonymous": false,
      "inputs": [
        {
          "indexed": true,
          "internalType": "bytes32",
          "name": "projectId",
          "type": "bytes32"
        },
        {
          "indexed": false,
          "internalType": "bytes32[]",
          "name": "packageIds",
          "type": "bytes32[]"
        },
        {
          "indexed": true,
          "internalType": "address",
          "name": "observer",
          "type": "address"
        }
      ],
      "name": "RemovedObserver",
      "type": "event"
    },
    {
      "anonymous": false,
      "inputs": [
        {
          "indexed": true,
          "internalType": "bytes32",
          "name": "projectId_",
          "type": "bytes32"
        },
        {
          "indexed": true,
          "internalType": "bytes32",
          "name": "packageId_",
          "type": "bytes32"
        },
        {
          "indexed": false,
          "internalType": "address",
          "name": "collaborator_",
          "type": "address"
        }
      ],
      "name": "RequestedRemoval",
      "type": "event"
    },
    {
      "anonymous": false,
      "inputs": [
        {
          "indexed": true,
          "internalType": "bytes32",
          "name": "projectId",
          "type": "bytes32"
        },
        {
          "indexed": true,
          "internalType": "bytes32",
          "name": "packageId",
          "type": "bytes32"
        },
        {
          "indexed": false,
          "internalType": "address[]",
          "name": "collaborators",
          "type": "address[]"
        },
        {
          "indexed": false,
          "internalType": "uint256[]",
          "name": "scores",
          "type": "uint256[]"
        }
      ],
      "name": "SetBonusScores",
      "type": "event"
    },
    {
      "anonymous": false,
      "inputs": [
        {
          "indexed": true,
          "internalType": "bytes32",
          "name": "projectId",
          "type": "bytes32"
        },
        {
          "indexed": true,
          "internalType": "uint256",
          "name": "paidAmount",
          "type": "uint256"
        }
      ],
      "name": "StartedProject",
      "type": "event"
    },
    {
      "anonymous": false,
      "inputs": [
        {
          "indexed": false,
          "internalType": "address",
          "name": "oldTreasury",
          "type": "address"
        },
        {
          "indexed": false,
          "internalType": "address",
          "name": "newTreasury",
          "type": "address"
        }
      ],
      "name": "UpdatedTreasury",
      "type": "event"
    },
    {
      "inputs": [],
      "name": "PCT_PRECISION",
      "outputs": [
        {
          "internalType": "uint256",
          "name": "",
          "type": "uint256"
        }
      ],
      "stateMutability": "view",
      "type": "function"
    },
    {
      "inputs": [
        {
          "internalType": "bytes32",
          "name": "_projectId",
          "type": "bytes32"
        },
        {
          "internalType": "bytes32",
          "name": "_packageId",
          "type": "bytes32"
        },
        {
          "internalType": "address",
          "name": "_collaborator",
          "type": "address"
        },
        {
          "internalType": "uint256",
          "name": "_mgp",
          "type": "uint256"
        }
      ],
      "name": "addCollaborator",
      "outputs": [],
      "stateMutability": "nonpayable",
      "type": "function"
    },
    {
      "inputs": [
        {
          "internalType": "bytes32",
          "name": "_projectId",
          "type": "bytes32"
        },
        {
          "internalType": "bytes32[]",
          "name": "_packageIds",
          "type": "bytes32[]"
        },
        {
          "internalType": "address",
          "name": "_observer",
          "type": "address"
        }
      ],
      "name": "addObserver",
      "outputs": [],
      "stateMutability": "nonpayable",
      "type": "function"
    },
    {
      "inputs": [
        {
          "internalType": "bytes32",
          "name": "_projectId",
          "type": "bytes32"
        },
        {
          "internalType": "bytes32",
          "name": "_packageId",
          "type": "bytes32"
        },
        {
          "internalType": "address",
          "name": "_collaborator",
          "type": "address"
        }
      ],
      "name": "approveCollaborator",
      "outputs": [],
      "stateMutability": "nonpayable",
      "type": "function"
    },
    {
      "inputs": [
        {
          "internalType": "bytes32",
          "name": "_projectId",
          "type": "bytes32"
        }
      ],
      "name": "approveProject",
      "outputs": [],
      "stateMutability": "nonpayable",
      "type": "function"
    },
    {
      "inputs": [
        {
          "internalType": "bytes32",
          "name": "_projectId",
          "type": "bytes32"
        },
        {
          "internalType": "bytes32",
          "name": "_packageId",
          "type": "bytes32"
        },
        {
          "internalType": "address[]",
          "name": "_collaborators",
          "type": "address[]"
        },
        {
          "internalType": "address[]",
          "name": "_observers",
          "type": "address[]"
        }
      ],
      "name": "cancelPackage",
      "outputs": [],
      "stateMutability": "nonpayable",
      "type": "function"
    },
    {
      "inputs": [
        {
          "internalType": "bytes32",
          "name": "_projectId",
          "type": "bytes32"
        },
        {
          "internalType": "bytes32",
          "name": "_packageId",
          "type": "bytes32"
        }
      ],
      "name": "claimBonus",
      "outputs": [],
      "stateMutability": "nonpayable",
      "type": "function"
    },
    {
      "inputs": [
        {
          "internalType": "bytes32",
          "name": "_projectId",
          "type": "bytes32"
        },
        {
          "internalType": "bytes32",
          "name": "_packageId",
          "type": "bytes32"
        }
      ],
      "name": "claimMgp",
      "outputs": [],
      "stateMutability": "nonpayable",
      "type": "function"
    },
    {
      "inputs": [
        {
          "internalType": "bytes32",
          "name": "_projectId",
          "type": "bytes32"
        },
        {
          "internalType": "bytes32",
          "name": "_packageId",
          "type": "bytes32"
        }
      ],
      "name": "claimObserverFee",
      "outputs": [],
      "stateMutability": "nonpayable",
      "type": "function"
    },
    {
      "inputs": [
        {
          "internalType": "bytes32",
          "name": "_projectId",
          "type": "bytes32"
        },
        {
          "internalType": "uint256",
          "name": "_budget",
          "type": "uint256"
        },
        {
          "internalType": "uint256",
          "name": "_bonus",
          "type": "uint256"
        },
        {
          "internalType": "uint256",
          "name": "_observerBudget",
          "type": "uint256"
        },
        {
          "internalType": "uint256",
          "name": "_maxCollaborators",
          "type": "uint256"
        }
      ],
      "name": "createPackage",
      "outputs": [],
      "stateMutability": "nonpayable",
      "type": "function"
    },
    {
      "inputs": [
        {
          "internalType": "address",
          "name": "token_",
          "type": "address"
        },
        {
          "internalType": "uint256",
          "name": "_budget",
          "type": "uint256"
        }
      ],
      "name": "createProject",
      "outputs": [],
      "stateMutability": "nonpayable",
      "type": "function"
    },
    {
      "inputs": [
        {
          "internalType": "bytes32",
          "name": "_projectId",
          "type": "bytes32"
        },
        {
          "internalType": "bytes32",
          "name": "_packageId",
          "type": "bytes32"
        }
      ],
      "name": "defendRemoval",
      "outputs": [],
      "stateMutability": "nonpayable",
      "type": "function"
    },
    {
      "inputs": [
        {
          "internalType": "bytes32",
          "name": "_projectId",
          "type": "bytes32"
        },
        {
          "internalType": "bytes32",
          "name": "_packageId",
          "type": "bytes32"
        }
      ],
      "name": "finishPackage",
      "outputs": [],
      "stateMutability": "nonpayable",
      "type": "function"
    },
    {
      "inputs": [
        {
          "internalType": "bytes32",
          "name": "_projectId",
          "type": "bytes32"
        }
      ],
      "name": "finishProject",
      "outputs": [],
      "stateMutability": "nonpayable",
      "type": "function"
    },
    {
      "inputs": [
        {
          "internalType": "bytes32",
          "name": "_projectId",
          "type": "bytes32"
        },
        {
          "internalType": "bytes32",
          "name": "_packageId",
          "type": "bytes32"
        },
        {
          "internalType": "address",
          "name": "_collaborator",
          "type": "address"
        }
      ],
      "name": "getCollaboratorData",
      "outputs": [
        {
          "components": [
            {
              "internalType": "uint256",
              "name": "mgp",
              "type": "uint256"
            },
            {
              "internalType": "uint256",
              "name": "timeCreated",
              "type": "uint256"
            },
            {
              "internalType": "uint256",
              "name": "timeMgpApproved",
              "type": "uint256"
            },
            {
              "internalType": "uint256",
              "name": "timeMgpPaid",
              "type": "uint256"
            },
            {
              "internalType": "uint256",
              "name": "timeBonusPaid",
              "type": "uint256"
            },
            {
              "internalType": "uint256",
              "name": "bonusScore",
              "type": "uint256"
            },
            {
              "internalType": "uint256",
              "name": "disputeExpiresAt",
              "type": "uint256"
            },
            {
              "internalType": "uint256",
              "name": "resolveExpiresAt",
              "type": "uint256"
            },
            {
              "internalType": "bool",
              "name": "isRemoved",
              "type": "bool"
            }
          ],
          "internalType": "struct Collaborator",
          "name": "",
          "type": "tuple"
        }
      ],
      "stateMutability": "view",
      "type": "function"
    },
    {
      "inputs": [
        {
          "internalType": "bytes32",
          "name": "_projectId",
          "type": "bytes32"
        },
        {
          "internalType": "bytes32",
          "name": "_packageId",
          "type": "bytes32"
        },
        {
          "internalType": "address",
          "name": "_collaborator",
          "type": "address"
        }
      ],
      "name": "getCollaboratorRewards",
      "outputs": [
        {
          "internalType": "uint256",
          "name": "",
          "type": "uint256"
        },
        {
          "internalType": "uint256",
          "name": "",
          "type": "uint256"
        }
      ],
      "stateMutability": "view",
      "type": "function"
    },
    {
      "inputs": [
        {
          "internalType": "bytes32",
          "name": "_projectId",
          "type": "bytes32"
        },
        {
          "internalType": "bytes32",
          "name": "_packageId",
          "type": "bytes32"
        },
        {
          "internalType": "address",
          "name": "_observer",
          "type": "address"
        }
      ],
      "name": "getObserverData",
      "outputs": [
        {
          "components": [
            {
              "internalType": "uint256",
              "name": "timeCreated",
              "type": "uint256"
            },
            {
              "internalType": "uint256",
              "name": "timePaid",
              "type": "uint256"
            },
            {
              "internalType": "bool",
              "name": "isRemoved",
              "type": "bool"
            }
          ],
          "internalType": "struct Observer",
          "name": "",
          "type": "tuple"
        }
      ],
      "stateMutability": "view",
      "type": "function"
    },
    {
      "inputs": [
        {
          "internalType": "bytes32",
          "name": "_projectId",
          "type": "bytes32"
        },
        {
          "internalType": "bytes32",
          "name": "_packageId",
          "type": "bytes32"
        },
        {
          "internalType": "address",
          "name": "_observer",
          "type": "address"
        }
      ],
      "name": "getObserverFee",
      "outputs": [
        {
          "internalType": "uint256",
          "name": "",
          "type": "uint256"
        }
      ],
      "stateMutability": "view",
      "type": "function"
    },
    {
      "inputs": [
        {
          "internalType": "bytes32",
          "name": "_projectId",
          "type": "bytes32"
        },
        {
          "internalType": "bytes32",
          "name": "_packageId",
          "type": "bytes32"
        }
      ],
      "name": "getPackageData",
      "outputs": [
        {
          "components": [
            {
              "internalType": "uint256",
              "name": "budget",
              "type": "uint256"
            },
            {
              "internalType": "uint256",
              "name": "budgetAllocated",
              "type": "uint256"
            },
            {
              "internalType": "uint256",
              "name": "budgetPaid",
              "type": "uint256"
            },
            {
              "internalType": "uint256",
              "name": "budgetObservers",
              "type": "uint256"
            },
            {
              "internalType": "uint256",
              "name": "budgetObserversPaid",
              "type": "uint256"
            },
            {
              "internalType": "uint256",
              "name": "bonus",
              "type": "uint256"
            },
            {
              "internalType": "uint256",
              "name": "bonusPaid",
              "type": "uint256"
            },
            {
              "internalType": "uint256",
              "name": "collaboratorsPaidBonus",
              "type": "uint256"
            },
            {
              "internalType": "uint256",
              "name": "collaboratorsGetBonus",
              "type": "uint256"
            },
            {
              "internalType": "uint256",
              "name": "timeCreated",
              "type": "uint256"
            },
            {
              "internalType": "uint256",
              "name": "timeFinished",
              "type": "uint256"
            },
            {
              "internalType": "uint256",
              "name": "totalObservers",
              "type": "uint256"
            },
            {
              "internalType": "uint256",
              "name": "totalCollaborators",
              "type": "uint256"
            },
            {
              "internalType": "uint256",
              "name": "maxCollaborators",
              "type": "uint256"
            },
            {
              "internalType": "uint256",
              "name": "approvedCollaborators",
              "type": "uint256"
            },
            {
              "internalType": "uint256",
              "name": "disputesCount",
              "type": "uint256"
            },
            {
              "internalType": "uint256",
              "name": "timeCanceled",
              "type": "uint256"
            },
            {
              "internalType": "bool",
              "name": "isActive",
              "type": "bool"
            }
          ],
          "internalType": "struct Package",
          "name": "",
          "type": "tuple"
        }
      ],
      "stateMutability": "view",
      "type": "function"
    },
    {
      "inputs": [
        {
          "internalType": "bytes32",
          "name": "_projectId",
          "type": "bytes32"
        }
      ],
      "name": "getProjectData",
      "outputs": [
        {
          "components": [
            {
              "internalType": "address",
              "name": "initiator",
              "type": "address"
            },
            {
              "internalType": "address",
              "name": "token",
              "type": "address"
            },
            {
              "internalType": "bool",
              "name": "isOwnToken",
              "type": "bool"
            },
            {
              "internalType": "uint256",
              "name": "budget",
              "type": "uint256"
            },
            {
              "internalType": "uint256",
              "name": "budgetAllocated",
              "type": "uint256"
            },
            {
              "internalType": "uint256",
              "name": "budgetPaid",
              "type": "uint256"
            },
            {
              "internalType": "uint256",
              "name": "timeCreated",
              "type": "uint256"
            },
            {
              "internalType": "uint256",
              "name": "timeApproved",
              "type": "uint256"
            },
            {
              "internalType": "uint256",
              "name": "timeStarted",
              "type": "uint256"
            },
            {
              "internalType": "uint256",
              "name": "timeFinished",
              "type": "uint256"
            },
            {
              "internalType": "uint256",
              "name": "totalPackages",
              "type": "uint256"
            },
            {
              "internalType": "uint256",
              "name": "totalFinishedPackages",
              "type": "uint256"
            }
          ],
          "internalType": "struct Project",
          "name": "",
          "type": "tuple"
        }
      ],
      "stateMutability": "view",
      "type": "function"
    },
    {
      "inputs": [
        {
          "internalType": "address",
          "name": "treasury_",
          "type": "address"
        },
        {
          "internalType": "address",
          "name": "tokenFactory_",
          "type": "address"
        }
      ],
      "name": "initialize",
      "outputs": [],
      "stateMutability": "nonpayable",
      "type": "function"
    },
    {
      "inputs": [],
      "name": "owner",
      "outputs": [
        {
          "internalType": "address",
          "name": "",
          "type": "address"
        }
      ],
      "stateMutability": "view",
      "type": "function"
    },
    {
      "inputs": [
        {
          "internalType": "bytes32",
          "name": "_projectId",
          "type": "bytes32"
        },
        {
          "internalType": "bytes32",
          "name": "_packageId",
          "type": "bytes32"
        },
        {
          "internalType": "address",
          "name": "_collaborator",
          "type": "address"
        }
      ],
      "name": "payMgp",
      "outputs": [],
      "stateMutability": "nonpayable",
      "type": "function"
    },
    {
      "inputs": [
        {
          "internalType": "bytes32",
          "name": "_projectId",
          "type": "bytes32"
        },
        {
          "internalType": "bytes32",
          "name": "_packageId",
          "type": "bytes32"
        },
        {
          "internalType": "address",
          "name": "_observer",
          "type": "address"
        }
      ],
      "name": "payObserverFee",
      "outputs": [],
      "stateMutability": "nonpayable",
      "type": "function"
    },
    {
      "inputs": [
        {
          "internalType": "bytes32",
          "name": "_projectId",
          "type": "bytes32"
        },
        {
          "internalType": "bytes32",
          "name": "_packageId",
          "type": "bytes32"
        },
        {
          "internalType": "address",
          "name": "_collaborator",
          "type": "address"
        },
        {
          "internalType": "bool",
          "name": "_shouldPayMgp",
          "type": "bool"
        }
      ],
      "name": "removeCollaborator",
      "outputs": [],
      "stateMutability": "nonpayable",
      "type": "function"
    },
    {
      "inputs": [
        {
          "internalType": "bytes32",
          "name": "_projectId",
          "type": "bytes32"
        },
        {
          "internalType": "bytes32[]",
          "name": "_packageIds",
          "type": "bytes32[]"
        },
        {
          "internalType": "address",
          "name": "_observer",
          "type": "address"
        }
      ],
      "name": "removeObserver",
      "outputs": [],
      "stateMutability": "nonpayable",
      "type": "function"
    },
    {
      "inputs": [],
      "name": "renounceOwnership",
      "outputs": [],
      "stateMutability": "nonpayable",
      "type": "function"
    },
    {
      "inputs": [
        {
          "internalType": "bytes32",
          "name": "_projectId",
          "type": "bytes32"
        },
        {
          "internalType": "bytes32",
          "name": "_packageId",
          "type": "bytes32"
        },
        {
          "internalType": "address",
          "name": "_collaborator",
          "type": "address"
        },
        {
          "internalType": "bool",
          "name": "_approved",
          "type": "bool"
        }
      ],
      "name": "resolveDispute",
      "outputs": [],
      "stateMutability": "nonpayable",
      "type": "function"
    },
    {
      "inputs": [
        {
          "internalType": "bytes32",
          "name": "_projectId",
          "type": "bytes32"
        },
        {
          "internalType": "bytes32",
          "name": "_packageId",
          "type": "bytes32"
        }
      ],
      "name": "selfRemove",
      "outputs": [],
      "stateMutability": "nonpayable",
      "type": "function"
    },
    {
      "inputs": [
        {
          "internalType": "bytes32",
          "name": "_projectId",
          "type": "bytes32"
        },
        {
          "internalType": "bytes32",
          "name": "_packageId",
          "type": "bytes32"
        },
        {
          "internalType": "address[]",
          "name": "_collaborators",
          "type": "address[]"
        },
        {
          "internalType": "uint256[]",
          "name": "_scores",
          "type": "uint256[]"
        }
      ],
      "name": "setBonusScores",
      "outputs": [],
      "stateMutability": "nonpayable",
      "type": "function"
    },
    {
      "inputs": [
        {
          "internalType": "bytes32",
          "name": "_projectId",
          "type": "bytes32"
        },
        {
          "internalType": "bytes32",
          "name": "_packageId",
          "type": "bytes32"
        },
        {
          "internalType": "address",
          "name": "_collaborator",
          "type": "address"
        }
      ],
      "name": "settleExpiredDispute",
      "outputs": [],
      "stateMutability": "nonpayable",
      "type": "function"
    },
    {
      "inputs": [
        {
          "internalType": "bytes32",
          "name": "_projectId",
          "type": "bytes32"
        }
      ],
      "name": "startProject",
      "outputs": [],
      "stateMutability": "nonpayable",
      "type": "function"
    },
    {
      "inputs": [],
      "name": "tokenFactory",
      "outputs": [
        {
          "internalType": "address",
          "name": "",
          "type": "address"
        }
      ],
      "stateMutability": "view",
      "type": "function"
    },
    {
      "inputs": [
        {
          "internalType": "address",
          "name": "newOwner",
          "type": "address"
        }
      ],
      "name": "transferOwnership",
      "outputs": [],
      "stateMutability": "nonpayable",
      "type": "function"
    },
    {
      "inputs": [],
      "name": "treasury",
      "outputs": [
        {
          "internalType": "address",
          "name": "",
          "type": "address"
        }
      ],
      "stateMutability": "view",
      "type": "function"
    },
    {
      "inputs": [
        {
          "internalType": "address",
          "name": "treasury_",
          "type": "address"
        }
      ],
      "name": "updateTreasury",
      "outputs": [],
      "stateMutability": "nonpayable",
      "type": "function"
    }
  ],
  "bytecode": "0x608060405234801561001057600080fd5b50614a2d806100206000396000f3fe608060405234801561001057600080fd5b506004361061021c5760003560e01c80636c8dbcee11610125578063c26ceebe116100ad578063e77772fe1161007c578063e77772fe1461060a578063e82d65721461061d578063ec104ff114610630578063f2fde38b14610643578063f90395f81461065657600080fd5b8063c26ceebe146105c7578063dcce114e146105da578063de5d98e6146105ed578063e1d845141461060057600080fd5b80637f51bb1f116100f45780637f51bb1f1461056a57806385ceab291461057d5780638da5cb5b14610590578063a8cd2789146105a1578063ad7cb1aa146105b457600080fd5b80636c8dbcee1461051b5780636e5789921461052e578063715018a6146105415780637cbe62c61461054957600080fd5b80632f408e17116101a8578063563950c111610177578063563950c11461046b57806358ff3e471461047e578063590ab7db146104a657806361d027b3146104dd57806366d66c921461050857600080fd5b80632f408e171461041f5780633b12b73714610432578063485cc955146104455780634f18c9691461045857600080fd5b80632008002e116101ef5780632008002e1461034457806323d683e7146103c657806324f87b6a146103e6578063284a9f48146103f95780632e48da731461040c57600080fd5b806303a1fc221461022157806304ad8b1f146102365780630eae9d8814610249578063200004781461025c575b600080fd5b61023461022f3660046140f3565b610669565b005b61023461024436600461413a565b610765565b610234610257366004614181565b610881565b61026f61026a3660046140f3565b610aa9565b60405161033b9190815181526020808301519082015260408083015190820152606080830151908201526080808301519082015260a0808301519082015260c0808301519082015260e08083015190820152610100808301519082015261012080830151908201526101408083015190820152610160808301519082015261018080830151908201526101a080830151908201526101c080830151908201526101e080830151908201526102008083015190820152610220918201511515918101919091526102400190565b60405180910390f35b61035761035236600461413a565b610c26565b60405161033b9190600061012082019050825182526020830151602083015260408301516040830152606083015160608301526080830151608083015260a083015160a083015260c083015160c083015260e083015160e0830152610100808401511515818401525092915050565b6103d96103d43660046141cb565b610d13565b60405161033b91906141e4565b6102346103f436600461413a565b610e3b565b610234610407366004614181565b610f4a565b61023461041a3660046140f3565b6110b0565b61023461042d3660046140f3565b61115a565b61023461044036600461436c565b6111ad565b6102346104533660046143e3565b61139b565b61023461046636600461441c565b61158d565b6102346104793660046140f3565b6117bd565b61049161048c36600461413a565b61189a565b6040805192835260208301919091520161033b565b6104b96104b436600461413a565b611974565b6040805182518152602080840151908201529181015115159082015260600161033b565b6097546104f0906001600160a01b031681565b6040516001600160a01b03909116815260200161033b565b6102346105163660046140f3565b6119f2565b6102346105293660046144e7565b611ae9565b61023461053c36600461413a565b611c2f565b610234611c78565b61055c61055736600461413a565b611c8c565b60405190815260200161033b565b610234610578366004614594565b611d10565b61023461058b3660046141cb565b611dca565b6033546001600160a01b03166104f0565b6102346105af3660046141cb565b611e54565b6102346105c23660046144e7565b611e93565b6102346105d53660046140f3565b612021565b6102346105e836600461413a565b612112565b6102346105fb3660046145b1565b612203565b61055c620f424081565b6098546104f0906001600160a01b031681565b61023461062b3660046145ec565b61236e565b61023461063e366004614618565b612464565b610234610651366004614594565b6125ad565b6102346106643660046141cb565b612626565b6000828152609c60209081526040808320848452825280832033808552908352818420868552609b8452828520868652845282852091855292529091205460ff16156106fc5760405162461bcd60e51b815260206004820152601e60248201527f636f6c6c61626f7261746f7220617070726f76656420616c726561647921000060448201526064015b60405180910390fd5b6107058161266b565b805460068201546000858152609a60209081526040808320878452909152902061073292909115156126c2565b81836000805160206149d8833981519152335b6040516001600160a01b03909116815260200160405180910390a3505050565b60008381526099602052604090205483906001600160a01b0316331461079d5760405162461bcd60e51b81526004016106f390614657565b6000848152609c6020908152604080832086845282528083206001600160a01b038616845290915290206107d08161273b565b61081c5760405162461bcd60e51b815260206004820152601b60248201527f6e6f7420656c6c696769626c6520746f2072656d6f766520796574000000000060448201526064016106f3565b6108258161266b565b80546000868152609a60209081526040808320888452909152902061084b9160016126c2565b6040516001600160a01b0384168152849086906000805160206149d8833981519152906020015b60405180910390a35050505050565b60008481526099602052604090205484906001600160a01b031633146108b95760405162461bcd60e51b81526004016106f390614657565b6000858152609b6020908152604080832087845282528083206001600160a01b038716845290915290205460ff16156109345760405162461bcd60e51b815260206004820152601e60248201527f636f6c6c61626f7261746f7220617070726f76656420616c726561647921000060448201526064016106f3565b6000858152609c6020908152604080832087845282528083206001600160a01b0387168452909152902082156109d15761096f86868661276b565b80546000878152609a6020908152604080832089845290915281206109959290916126c2565b61099e8161266b565b6040516001600160a01b0385168152859087906000805160206149d88339815191529060200160405180910390a3610a72565b6000868152609c6020908152604080832088845282528083206001600160a01b03881684529091529020610a0490612823565b6000868152609a602090815260408083208884529091528120600f01805491610a2c836146a4565b90915550506040516001600160a01b0385168152859087907f75a8bedd8bb0acc13a77c019623dc408e5851a9394ac0f860fb40032bb5dce509060200160405180910390a35b6040516001600160a01b0385168152859087906000805160206149d8833981519152906020015b60405180910390a3505050505050565b610b3960405180610240016040528060008152602001600081526020016000815260200160008152602001600081526020016000815260200160008152602001600081526020016000815260200160008152602001600081526020016000815260200160008152602001600081526020016000815260200160008152602001600081526020016000151581525090565b506000828152609a60209081526040808320848452825291829020825161024081018452815481526001820154928101929092526002810154928201929092526003820154606082015260048201546080820152600582015460a0820152600682015460c0820152600782015460e082015260088201546101008201526009820154610120820152600a820154610140820152600b820154610160820152600c820154610180820152600d8201546101a0820152600e8201546101c0820152600f8201546101e0820152601082015461020082015260119091015460ff1615156102208201525b92915050565b610c7760405180610120016040528060008152602001600081526020016000815260200160008152602001600081526020016000815260200160008152602001600081526020016000151581525090565b506000838152609c6020908152604080832085845282528083206001600160a01b0385168452825291829020825161012081018452815481526001820154928101929092526002810154928201929092526003820154606082015260048201546080820152600582015460a0820152600682015460c0820152600782015460e082015260089091015460ff1615156101008201525b9392505050565b610d8b60405180610180016040528060006001600160a01b0316815260200160006001600160a01b031681526020016000151581526020016000815260200160008152602001600081526020016000815260200160008152602001600081526020016000815260200160008152602001600081525090565b5060009081526099602090815260409182902082516101808101845281546001600160a01b039081168252600183015490811693820193909352600160a01b90920460ff161515928201929092526002820154606082015260038201546080820152600482015460a0820152600582015460c0820152600682015460e0820152600782015461010082015260088201546101208201526009820154610140820152600a9091015461016082015290565b60008381526099602052604090205483906001600160a01b03163314610e735760405162461bcd60e51b81526004016106f390614657565b6000848152609d6020908152604080832086845282528083206001600160a01b03861684529091529020610ea690612901565b6000848152609a602090815260408083208684529091528120610ec8906129ab565b6000868152609a602090815260408083208884529091529020909150610eee90826129fd565b6000858152609960205260409020610f07908483612a6f565b604080516001600160a01b038516815260208101839052859187917ff791dbe60269baac78be1afe586f70aa816e7a19b3ff88e228ca638e41142dae9101610872565b6000848152609d60209081526040808320868452825280832033845290915290206033546001600160a01b03166001600160a01b0316336001600160a01b03161480610fa65750805415801590610fa65750600281015460ff16155b610ff25760405162461bcd60e51b815260206004820152601860248201527f43616c6c6572206973206e6f7420617574686f72697a6564000000000000000060448201526064016106f3565b6000858152609c6020908152604080832087845282528083206001600160a01b0387168452909152902060078101544211156110705760405162461bcd60e51b815260206004820152601e60248201527f7265736f6c766520706572696f6420616c72656164792065787069726564000060448201526064016106f3565b80546000878152609a6020908152604080832089845290915290206110969160016126c2565b82156110a7576110a786868661276b565b610a728161266b565b60008281526099602052604090205482906001600160a01b031633146110e85760405162461bcd60e51b81526004016106f390614657565b6000838152609a60209081526040808320858452909152812061110a90612aa1565b60008581526099602052604090209091506111259082612bd7565b8083857fca0673658d6abd07a7992b1c692276e95e5693b83c44ebcbc0f5661add8f274f60405160405180910390a450505050565b6000828152609c602090815260408083208484528252808320338452909152902061118481612c12565b81837f713fd62eff4bb220d5a7571aa50a5069151f6d8a6e6de02886004c38542d49df33610745565b60008481526099602052604090205484906001600160a01b031633146111e55760405162461bcd60e51b81526004016106f390614657565b6000858152609a602090815260408083208784529091529020600c8101548451146112525760405162461bcd60e51b815260206004820152601c60248201527f696e76616c696420636f6c6c61626f7261746f7273206c656e6774680000000060448201526064016106f3565b80600b01548351146112a65760405162461bcd60e51b815260206004820152601860248201527f696e76616c6964206f6273657276657273206c656e677468000000000000000060448201526064016106f3565b6112af81612d07565b60005b84518110156112f1576112df87878784815181106112d2576112d26146bf565b6020026020010151611c2f565b806112e9816146a4565b9150506112b2565b5060005b8351811015611334576113228787868481518110611315576113156146bf565b6020026020010151610e3b565b8061132c816146a4565b9150506112f5565b5060028101548154600091611348916146d5565b60008881526099602052604090209091506113639082612d41565b8086887f56829e4c362b83a2633cd58ab80f95a4c661582416ca0dd74cf6844198ef939060405160405180910390a450505050505050565b600054610100900460ff16158080156113bb5750600054600160ff909116105b806113d55750303b1580156113d5575060005460ff166001145b6114385760405162461bcd60e51b815260206004820152602e60248201527f496e697469616c697a61626c653a20636f6e747261637420697320616c72656160448201526d191e481a5b9a5d1a585b1a5e995960921b60648201526084016106f3565b6000805460ff19166001179055801561145b576000805461ff0019166101001790555b611463612d6c565b61146b612d9b565b6001600160a01b0383166114bc5760405162461bcd60e51b8152602060048201526018602482015277696e76616c6964207472656173757279206164647265737360401b60448201526064016106f3565b6001600160a01b0382166115125760405162461bcd60e51b815260206004820152601c60248201527f696e76616c696420746f6b656e466163746f727920616464726573730000000060448201526064016106f3565b609780546001600160a01b038086166001600160a01b03199283161790925560988054928516929091169190911790558015611588576000805461ff0019169055604051600181527f7f26b83ff96e1f2b6a682f133852f6798a09c465da95921460cefb38474024989060200160405180910390a15b505050565b611595612dca565b6000848152609a6020908152604080832086845290915290208251158015906115c3575080600c0154835111155b61160f5760405162461bcd60e51b815260206004820152601a60248201527f696e76616c696420636f6c6c61626f7261746f7273206c69737400000000000060448201526064016106f3565b81518351146116595760405162461bcd60e51b81526020600482015260166024820152750c2e4e4c2f2e640d8cadccee8d040dad2e6dac2e8c6d60531b60448201526064016106f3565b6000805b845181101561172a576116f184828151811061167b5761167b6146bf565b6020026020010151609c60008a8152602001908152602001600020600089815260200190815260200160002060008885815181106116bb576116bb6146bf565b60200260200101516001600160a01b03166001600160a01b03168152602001908152602001600020612e2490919063ffffffff16565b838181518110611703576117036146bf565b60200260200101518261171691906146ec565b915080611722816146a4565b91505061165d565b50620f4240811461177d5760405162461bcd60e51b815260206004820152601c60248201527f696e636f727265637420746f74616c20626f6e75732073636f7265730000000060448201526064016106f3565b825161178a908390612f05565b84867fd2099d348c0c424f42abe035ccbc33b18ad6476940d795977e01d8b3309aa6508686604051610a99929190614704565b600260655414156117e05760405162461bcd60e51b81526004016106f390614788565b60026065556000828152609c6020908152604080832084845282528083203380855292528220909161181182612fa9565b6000868152609a602090815260408083208884529091529020909150611837908261307c565b6000858152609960205260409020611850908483612a6f565b6040805133815260208101839052859187917f054995f20a80507930fd26d74d6e3b500a33f8d385d451442d3933784a78ab7891015b60405180910390a350506001606555505050565b6000838152609a602090815260408083208584528252808320868452609c835281842086855283528184206001600160a01b038616855290925282206003810154839291908390156118ed5760006118f0565b81545b9050600080836005015411801561190957506004830154155b1561196657600884015460078501546119239060016146ec565b1461194f57620f42408460050154846005015461194091906147bf565b61194a91906147de565b611963565b8360060154846005015461196391906146d5565b90505b909890975095505050505050565b61199a604051806060016040528060008152602001600081526020016000151581525090565b506000928352609d602090815260408085209385529281528284206001600160a01b03929092168452908152918190208151606081018352815481526001820154938101939093526002015460ff1615159082015290565b60026065541415611a155760405162461bcd60e51b81526004016106f390614788565b60026065556000828152609d602090815260408083208484528252808320338085529252909120611a4581612901565b6000848152609a602090815260408083208684529091528120611a67906129ab565b6000868152609a602090815260408083208884529091529020909150611a8d90826129fd565b6000858152609960205260409020611aa6908483612a6f565b604080516001600160a01b038516815260208101839052859187917ff791dbe60269baac78be1afe586f70aa816e7a19b3ff88e228ca638e41142dae9101611886565b60008381526099602052604090205483906001600160a01b03163314611b215760405162461bcd60e51b81526004016106f390614657565b60005b8351811015611be6576000858152609d602052604081208551611b929290879085908110611b5457611b546146bf565b602002602001015181526020019081526020016000206000856001600160a01b03166001600160a01b031681526020019081526020016000206130e5565b6000858152609a602052604081208551611bd49290879085908110611bb957611bb96146bf565b6020026020010151815260200190815260200160002061314c565b80611bde816146a4565b915050611b24565b50816001600160a01b0316847fad9c112029be97aebfcadac89baecf457d3cba6b23e21f50dc8930cfac815add85604051611c219190614800565b60405180910390a350505050565b60008381526099602052604090205483906001600160a01b03163314611c675760405162461bcd60e51b81526004016106f390614657565b611c7284848461276b565b50505050565b611c80612dca565b611c8a6000613184565b565b6000838152609d6020908152604080832085845282528083206001600160a01b038516845290915281206001810154151580611cc757508054155b80611cd65750600281015460ff165b15611ce5576000915050610d0c565b6000858152609a602090815260408083208784529091529020611d07906129ab565b95945050505050565b611d18612dca565b6001600160a01b038116611d695760405162461bcd60e51b8152602060048201526018602482015277696e76616c6964207472656173757279206164647265737360401b60448201526064016106f3565b609780546001600160a01b038381166001600160a01b031983168117909355604080519190921680825260208201939093527f2ac12ebf7dfd56173c73b2e43941f0faed1c3f7fb6f959191a4ab4bdd3d32e21910160405180910390a15050565b60008181526099602052604090205481906001600160a01b03163314611e025760405162461bcd60e51b81526004016106f390614657565b6097546000838152609960205260409020611e25916001600160a01b03166131d6565b60405182907fc28b1ad1673f9075256e65cedb3d5299df51d627b7e04f4747729a0f43ba43a090600090a25050565b611e5c612dca565b611e65816133cf565b60405181907ff8cff203664824068f2b9b06611412aa2f566078fb8d0ffdbbc9eb3b11042b1890600090a250565b60008381526099602052604090205483906001600160a01b03163314611ecb5760405162461bcd60e51b81526004016106f390614657565b60005b8351811015611fe6576001600160a01b038316611f2d5760405162461bcd60e51b815260206004820152601a60248201527f6f6273657276657227732061646472657373206973207a65726f00000000000060448201526064016106f3565b6000858152609d602052604081208551611f929290879085908110611f5457611f546146bf565b602002602001015181526020019081526020016000206000856001600160a01b03166001600160a01b031681526020019081526020016000206133e6565b6000858152609a602052604081208551611fd49290879085908110611fb957611fb96146bf565b6020026020010151815260200190815260200160002061343e565b80611fde816146a4565b915050611ece565b50816001600160a01b0316847f9a216858427510cee32fa43343eb4bf300aa4519cd643dc4e011f580b7b42dba85604051611c219190614800565b600260655414156120445760405162461bcd60e51b81526004016106f390614788565b60026065556000828152609c6020908152604080832084845282528083203380855292528220909161207785858561189a565b915050612083826134c2565b6000858152609a6020908152604080832087845290915290206120a68183613593565b60008681526099602052604090206120bf908584612a6f565b604080516001600160a01b038616815260208101849052869188917f35b08d221256dcde7a569c4734e621df9f9ef901d9fc9f418780634c5b10261f910160405180910390a35050600160655550505050565b60008381526099602052604090205483906001600160a01b0316331461214a5760405162461bcd60e51b81526004016106f390614657565b6000848152609b6020908152604080832086845282528083206001600160a01b038616808552908352818420805460ff19166001179055878452609c8352818420878552835281842090845290915290206121a4906135be565b6000848152609a6020908152604080832086845290915290206121c690613650565b6040516001600160a01b0383168152839085907f89d75bad6a27d516d326126cd95a5626e99ce9548579494bb6d51f59b9c8878390602001611c21565b60008581526099602052604090205485906001600160a01b0316331461223b5760405162461bcd60e51b81526004016106f390614657565b846000811161225c5760405162461bcd60e51b81526004016106f390614844565b6000878152609960205260408120600181015490916001600160a01b039091169086612288898b6146ec565b61229291906146ec565b90506122a083826001613688565b60006122ad8b60006137bf565b60008c8152609a6020908152604080832084845290915290209091506122d6818c8b8d8c61382e565b6001850154600160a01b900460ff161561232357612323336097546001600160a01b031660646123078760056147bf565b61231191906147de565b6001600160a01b0388169291906138c7565b604080518c8152602081018c905283918e917f8bd3f0382da5856756cd40562f205ab46df1ddb7a1b8c4a9770d37dcf357a2b6910160405180910390a3505050505050505050505050565b806000811161238f5760405162461bcd60e51b81526004016106f390614844565b6000612399613932565b60008181526099602052604090208054336001600160a01b031990911617815560018101805460028301879055426005909301929092556001600160a81b03199091166001600160a01b038716908117901515600160a01b021790559050807fe13f31eeb084676e55593cb99c5bef76fadde467d9bc2653f56a4c9c3f3302c633604080516001600160a01b0392831681529188166020830152810186905260600160405180910390a26001600160a01b03841615611c725761245b816133cf565b611c728161399a565b60008481526099602052604090205484906001600160a01b0316331461249c5760405162461bcd60e51b81526004016106f390614657565b81600081116124bd5760405162461bcd60e51b81526004016106f390614844565b6001600160a01b0384166125135760405162461bcd60e51b815260206004820152601e60248201527f636f6c6c61626f7261746f7227732061646472657373206973207a65726f000060448201526064016106f3565b6000868152609c6020908152604080832088845282528083206001600160a01b0388168452909152902061254790846139f5565b6000868152609a60209081526040808320888452909152902061256a9084613a6d565b604080516001600160a01b038616815260208101859052869188917f8aa39f8fa6c78a00b31a805b7955eb3e38d4cb7bd4d87c84655269141bd8477e9101610a99565b6125b5612dca565b6001600160a01b03811661261a5760405162461bcd60e51b815260206004820152602660248201527f4f776e61626c653a206e6577206f776e657220697320746865207a65726f206160448201526564647265737360d01b60648201526084016106f3565b61262381613184565b50565b60008181526099602052604090205481906001600160a01b0316331461265e5760405162461bcd60e51b81526004016106f390614657565b6126678261399a565b5050565b80600081600101541180156126855750600881015460ff16155b6126a15760405162461bcd60e51b81526004016106f390614869565b5060088101805460ff19166001179055600060068201819055600790910155565b6011830154839060ff166126e85760405162461bcd60e51b81526004016106f390614897565b828460010160008282546126fc91906146d5565b9091555050600c84018054906000612713836148c0565b91905055508115611c7257600f84018054906000612730836148c0565b919050555050505050565b600781015460009015612752575060070154421190565b60008260060154118015610c2057505060060154421190565b6000838152609c6020908152604080832085845282528083206001600160a01b0385168452909152902061279e81613b7f565b80546000858152609a6020908152604080832087845290915290206127c2916130d1565b805460008581526099602052604090206127dd918490612a6f565b8054604080516001600160a01b03851681526020810192909252849186917f054995f20a80507930fd26d74d6e3b500a33f8d385d451442d3933784a78ab789101611c21565b806000816001015411801561283d5750600881015460ff16155b6128595760405162461bcd60e51b81526004016106f390614869565b6006820154156128a05760405162461bcd60e51b8152602060048201526012602482015271616c726561647920696e206469737075746560701b60448201526064016106f3565b6003820154156128e85760405162461bcd60e51b81526020600482015260136024820152720416c726561647920436c61696d6564204d475606c1b60448201526064016106f3565b6128f56202a300426146ec565b82600601819055505050565b80548190158015906129185750600281015460ff16155b6129575760405162461bcd60e51b815260206004820152601060248201526f37379039bab1b41037b139b2b93b32b960811b60448201526064016106f3565b6001820154156129a15760405162461bcd60e51b81526020600482015260156024820152741bd89cd95c9d995c88185b1c9958591e481c185a59605a1b60448201526064016106f3565b5042600190910155565b600080826004015483600301546129c291906146d5565b9050600083600b015484600301546129da91906147de565b90506129e78160026147bf565b82106129f357806129f5565b815b949350505050565b601182015460ff1615612a525760405162461bcd60e51b815260206004820181905260248201527f7061636b616765206973206e6f742066696e69736865642f63616e63656c656460448201526064016106f3565b80826004016000828254612a6691906146ec565b90915550505050565b80836004016000828254612a8391906146ec565b90915550506001830154611588906001600160a01b03168383613c04565b6011810154600090829060ff16612aca5760405162461bcd60e51b81526004016106f390614897565b600f83015415612b1c5760405162461bcd60e51b815260206004820152601f60248201527f7061636b6167652068617320756e7265736f6c7665642064697370757465730060448201526064016106f3565b82600e015483600c015414612b735760405162461bcd60e51b815260206004820152601d60248201527f756e617070726f76656420636f6c6c61626f7261746f7273206c65667400000060448201526064016106f3565b60018301548354612b8491906146d5565b915082600b015460001415612ba5576003830154612ba290836146ec565b91505b600c830154612bc0576005830154612bbd90836146ec565b91505b5042600a8301556011909101805460ff1916905590565b8015612bf75780826003016000828254612bf191906146d5565b90915550505b600a82018054906000612c09836146a4565b91905055505050565b8060008160010154118015612c2c5750600881015460ff16155b612c485760405162461bcd60e51b81526004016106f390614869565b600782015415612c9a5760405162461bcd60e51b815260206004820152601860248201527f616c726561647920646566656e6465642072656d6f76616c000000000000000060448201526064016106f3565b8160060154421115612cee5760405162461bcd60e51b815260206004820152601e60248201527f6469737075746520706572696f6420616c72656164792065787069726564000060448201526064016106f3565b612cfb6203f480426146ec565b82600701819055505050565b6011810154819060ff16612d2d5760405162461bcd60e51b81526004016106f390614897565b50426010820155601101805460ff19169055565b80826003016000828254612d5591906146d5565b9091555050600982018054906000612c09836148c0565b600054610100900460ff16612d935760405162461bcd60e51b81526004016106f3906148d7565b611c8a613c34565b600054610100900460ff16612dc25760405162461bcd60e51b81526004016106f3906148d7565b611c8a613c64565b6033546001600160a01b03163314611c8a5760405162461bcd60e51b815260206004820181905260248201527f4f776e61626c653a2063616c6c6572206973206e6f7420746865206f776e657260448201526064016106f3565b8160008160010154118015612e3e5750600881015460ff16155b612e5a5760405162461bcd60e51b81526004016106f390614869565b600583015415612eac5760405162461bcd60e51b815260206004820152601e60248201527f636f6c6c61626f7261746f7220626f6e757320616c726561647920736574000060448201526064016106f3565b60008211612efc5760405162461bcd60e51b815260206004820152601760248201527f6e657720626f6e75732073636f7265206973207a65726f00000000000000000060448201526064016106f3565b50600590910155565b6000826005015411612f4d5760405162461bcd60e51b81526020600482015260116024820152701e995c9bc8189bdb9d5cc8189d5919d95d607a1b60448201526064016106f3565b600082600a015411612fa15760405162461bcd60e51b815260206004820152601760248201527f7061636b616765206973206e6f742066696e697368656400000000000000000060448201526064016106f3565b600890910155565b60008160008160010154118015612fc55750600881015460ff16155b612fe15760405162461bcd60e51b81526004016106f390614869565b600083600201541161302b5760405162461bcd60e51b81526020600482015260136024820152721b59dc081a5cc81b9bdd08185c1c1c9bdd9959606a1b60448201526064016106f3565b6003830154156130705760405162461bcd60e51b815260206004820152601060248201526f1b59dc08185b1c9958591e481c185a5960821b60448201526064016106f3565b50504260038201555490565b601182015460ff16156130d15760405162461bcd60e51b815260206004820152601d60248201527f7061636b616765206e6f742066696e69736865642f63616e63656c656400000060448201526064016106f3565b80826002016000828254612a6691906146ec565b80548190158015906130fc5750600281015460ff16155b61313b5760405162461bcd60e51b815260206004820152601060248201526f37379039bab1b41037b139b2b93b32b960811b60448201526064016106f3565b50600201805460ff19166001179055565b6011810154819060ff166131725760405162461bcd60e51b81526004016106f390614897565b600b82018054906000612c09836148c0565b603380546001600160a01b038381166001600160a01b0319831681179093556040519116919082907f8be0079c531659141344cd1fd0a4f28419497f9722a3daafe3b4186f6b6457e090600090a35050565b600082600701541161322a5760405162461bcd60e51b815260206004820152601760248201527f70726f6a656374206e6f7420737461727465642079657400000000000000000060448201526064016106f3565b60088201541561327c5760405162461bcd60e51b815260206004820152601860248201527f616c72656164792066696e69736865642070726f6a656374000000000000000060448201526064016106f3565b81600a01548260090154146132d35760405162461bcd60e51b815260206004820152601860248201527f756e66696e6973686564207061636b61676573206c656674000000000000000060448201526064016106f3565b426008830155600382015460028301546000916132ef916146d5565b90508015611588576001830154600160a01b900460ff161561336a576000606461331a8360056147bf565b61332491906147de565b905061333081836146d5565b84546001860154919350613351916001600160a01b03908116911683613c04565b6001840154611c72906001600160a01b03168484613c04565b6001830154604051630852cd8d60e31b8152600481018390526001600160a01b03909116906342966c6890602401600060405180830381600087803b1580156133b257600080fd5b505af11580156133c6573d6000803e3d6000fd5b50505050505050565b6000818152609960205260409020611e6590613c92565b80541561342e5760405162461bcd60e51b81526020600482015260166024820152751bd89cd95c9d995c88185b1c9958591e48185919195960521b60448201526064016106f3565b428155600201805460ff19169055565b6011810154819060ff166134645760405162461bcd60e51b81526004016106f390614897565b600a82600b0154106134b05760405162461bcd60e51b815260206004820152601560248201527413585e081bd89cd95c9d995c9cc81c995858da1959605a1b60448201526064016106f3565b600b82018054906000612c09836146a4565b80600081600101541180156134dc5750600881015460ff16155b6134f85760405162461bcd60e51b81526004016106f390614869565b60008260050154116135425760405162461bcd60e51b8152602060048201526013602482015272626f6e75732073636f7265206973207a65726f60681b60448201526064016106f3565b6004820154156135895760405162461bcd60e51b8152602060048201526012602482015271189bdb9d5cc8185b1c9958591e481c185a5960721b60448201526064016106f3565b5042600490910155565b808260060160008282546135a791906146ec565b9091555050600782018054906000612c09836146a4565b80600081600101541180156135d85750600881015460ff16155b6135f45760405162461bcd60e51b81526004016106f390614869565b6002820154156136465760405162461bcd60e51b815260206004820152601d60248201527f636f6c6c61626f7261746f7220616c726561647920617070726f76656400000060448201526064016106f3565b5042600290910155565b6011810154819060ff166136765760405162461bcd60e51b81526004016106f390614897565b600e82018054906000612c09836146a4565b60008360070154116136d55760405162461bcd60e51b81526020600482015260166024820152751c1c9bda9958dd081a5cc81b9bdd081cdd185c9d195960521b60448201526064016106f3565b60088301541561371d5760405162461bcd60e51b81526020600482015260136024820152721c1c9bda9958dd081a5cc8199a5b9a5cda1959606a1b60448201526064016106f3565b60008360030154846002015461373391906146d5565b9050828110156137855760405162461bcd60e51b815260206004820152601e60248201527f6e6f7420656e6f7567682070726f6a65637420627564676574206c656674000060448201526064016106f3565b8284600301600082825461379991906146ec565b92505081905550818460090160008282546137b491906146ec565b909155505050505050565b60006137ca82613d35565b6000848152609a6020908152604080832084845290915290206009015490915015610c205760405162461bcd60e51b8152602060048201526014602482015273191d5c1b1a58d85d19481c1858dad859d9481a5960621b60448201526064016106f3565b806003111580156138405750600a8111155b61388c5760405162461bcd60e51b815260206004820152601b60248201527f696e636f7272656374206d617820636f6c616c626f7261746f7273000000000060448201526064016106f3565b928455600384019190915560058301556000600180840191909155600d8301919091554260098301556011909101805460ff19169091179055565b6040516001600160a01b0380851660248301528316604482015260648101829052611c729085906323b872dd60e01b906084015b60408051601f198184030181529190526020810180516001600160e01b03166001600160e01b031990931692909217909152613d8d565b600061393e6000613d35565b600081815260996020526040902060050154909150156139975760405162461bcd60e51b8152602060048201526014602482015273191d5c1b1a58d85d19481c1c9bda9958dd081a5960621b60448201526064016106f3565b90565b6000818152609960205260409020600281015460985490916139c4916001600160a01b0316613e5f565b604051819083907f44815bdb52027a50a2f322e2ac3e126a52f96567b6a82aa6f4e0502e0d858c5090600090a35050565b600882015460ff1680613a0a57506001820154155b613a565760405162461bcd60e51b815260206004820152601a60248201527f636f6c6c61626f7261746f7220616c726561647920616464656400000000000060448201526064016106f3565b815560088101805460ff1916905542600190910155565b6011820154829060ff16613a935760405162461bcd60e51b81526004016106f390614897565b818360010154613aa391906146ec565b83541015613af35760405162461bcd60e51b815260206004820152601e60248201527f6e6f7420656e6f756768207061636b61676520627564676574206c656674000060448201526064016106f3565b82600d015483600c015410613b4a5760405162461bcd60e51b815260206004820152601960248201527f4d617820636f6c6c61626f7261746f727320726561636865640000000000000060448201526064016106f3565b81836001016000828254613b5e91906146ec565b9091555050600c83018054906000613b75836146a4565b9190505550505050565b8060008160010154118015613b995750600881015460ff16155b613bb55760405162461bcd60e51b81526004016106f390614869565b600382015415613bfa5760405162461bcd60e51b815260206004820152601060248201526f1b59dc08185b1c9958591e481c185a5960821b60448201526064016106f3565b5042600390910155565b6040516001600160a01b03831660248201526044810182905261158890849063a9059cbb60e01b906064016138fb565b600054610100900460ff16613c5b5760405162461bcd60e51b81526004016106f3906148d7565b611c8a33613184565b600054610100900460ff16613c8b5760405162461bcd60e51b81526004016106f3906148d7565b6001606555565b806000816005015411613cd95760405162461bcd60e51b815260206004820152600f60248201526e1b9bc81cdd58da081c1c9bda9958dd608a1b60448201526064016106f3565b600682015415613d2b5760405162461bcd60e51b815260206004820152601860248201527f616c726561647920617070726f7665642070726f6a656374000000000000000060448201526064016106f3565b5042600690910155565b600033613d436001436146d5565b60405160609290921b6bffffffffffffffffffffffff1916602083015240603482015260548101839052607401604051602081830303815290604052805190602001209050919050565b6000613de2826040518060400160405280602081526020017f5361666545524332303a206c6f772d6c6576656c2063616c6c206661696c6564815250856001600160a01b0316613fdf9092919063ffffffff16565b8051909150156115885780806020019051810190613e009190614922565b6115885760405162461bcd60e51b815260206004820152602a60248201527f5361666545524332303a204552433230206f7065726174696f6e20646964206e6044820152691bdd081cdd58d8d9595960b21b60648201526084016106f3565b6000826006015411613eb35760405162461bcd60e51b815260206004820152601760248201527f70726f6a656374206973206e6f7420617070726f76656400000000000000000060448201526064016106f3565b600782015415613f055760405162461bcd60e51b815260206004820152601760248201527f70726f6a65637420616c7265616479207374617274656400000000000000000060448201526064016106f3565b6001820154600160a01b900460ff1615613f415760028201546001830154613f3c916001600160a01b0390911690339030906138c7565b613fd5565b6002820154604051630fc76dad60e31b815260048101919091526001600160a01b03821690637e3b6d68906024016020604051808303816000875af1158015613f8e573d6000803e3d6000fd5b505050506040513d601f19601f82011682018060405250810190613fb2919061493f565b6001830180546001600160a01b0319166001600160a01b03929092169190911790555b5042600790910155565b60606129f58484600085856001600160a01b0385163b6140415760405162461bcd60e51b815260206004820152601d60248201527f416464726573733a2063616c6c20746f206e6f6e2d636f6e747261637400000060448201526064016106f3565b600080866001600160a01b0316858760405161405d9190614988565b60006040518083038185875af1925050503d806000811461409a576040519150601f19603f3d011682016040523d82523d6000602084013e61409f565b606091505b50915091506140af8282866140ba565b979650505050505050565b606083156140c9575081610d0c565b8251156140d95782518084602001fd5b8160405162461bcd60e51b81526004016106f391906149a4565b6000806040838503121561410657600080fd5b50508035926020909101359150565b6001600160a01b038116811461262357600080fd5b803561413581614115565b919050565b60008060006060848603121561414f57600080fd5b8335925060208401359150604084013561416881614115565b809150509250925092565b801515811461262357600080fd5b6000806000806080858703121561419757600080fd5b843593506020850135925060408501356141b081614115565b915060608501356141c081614173565b939692955090935050565b6000602082840312156141dd57600080fd5b5035919050565b81516001600160a01b031681526101808101602083015161421060208401826001600160a01b03169052565b506040830151614224604084018215159052565b50606083015160608301526080830151608083015260a083015160a083015260c083015160c083015260e083015160e083015261010080840151818401525061012080840151818401525061014080840151818401525061016080840151818401525092915050565b634e487b7160e01b600052604160045260246000fd5b604051601f8201601f1916810167ffffffffffffffff811182821017156142cc576142cc61428d565b604052919050565b600067ffffffffffffffff8211156142ee576142ee61428d565b5060051b60200190565b600082601f83011261430957600080fd5b8135602061431e614319836142d4565b6142a3565b82815260059290921b8401810191818101908684111561433d57600080fd5b8286015b8481101561436157803561435481614115565b8352918301918301614341565b509695505050505050565b6000806000806080858703121561438257600080fd5b8435935060208501359250604085013567ffffffffffffffff808211156143a857600080fd5b6143b4888389016142f8565b935060608701359150808211156143ca57600080fd5b506143d7878288016142f8565b91505092959194509250565b600080604083850312156143f657600080fd5b823561440181614115565b9150602083013561441181614115565b809150509250929050565b6000806000806080858703121561443257600080fd5b843593506020808601359350604086013567ffffffffffffffff8082111561445957600080fd5b61446589838a016142f8565b9450606088013591508082111561447b57600080fd5b508601601f8101881361448d57600080fd5b803561449b614319826142d4565b81815260059190911b8201830190838101908a8311156144ba57600080fd5b928401925b828410156144d8578335825292840192908401906144bf565b979a9699509497505050505050565b6000806000606084860312156144fc57600080fd5b8335925060208085013567ffffffffffffffff81111561451b57600080fd5b8501601f8101871361452c57600080fd5b803561453a614319826142d4565b81815260059190911b8201830190838101908983111561455957600080fd5b928401925b828410156145775783358252928401929084019061455e565b809650505050505061458b6040850161412a565b90509250925092565b6000602082840312156145a657600080fd5b8135610d0c81614115565b600080600080600060a086880312156145c957600080fd5b505083359560208501359550604085013594606081013594506080013592509050565b600080604083850312156145ff57600080fd5b823561460a81614115565b946020939093013593505050565b6000806000806080858703121561462e57600080fd5b8435935060208501359250604085013561464781614115565b9396929550929360600135925050565b6020808252601f908201527f63616c6c6572206973206e6f742070726f6a65637420696e69746961746f7200604082015260600190565b634e487b7160e01b600052601160045260246000fd5b60006000198214156146b8576146b861468e565b5060010190565b634e487b7160e01b600052603260045260246000fd5b6000828210156146e7576146e761468e565b500390565b600082198211156146ff576146ff61468e565b500190565b604080825283519082018190526000906020906060840190828701845b828110156147465781516001600160a01b031684529284019290840190600101614721565b5050508381038285015284518082528583019183019060005b8181101561477b5783518352928401929184019160010161475f565b5090979650505050505050565b6020808252601f908201527f5265656e7472616e637947756172643a207265656e7472616e742063616c6c00604082015260600190565b60008160001904831182151516156147d9576147d961468e565b500290565b6000826147fb57634e487b7160e01b600052601260045260246000fd5b500490565b6020808252825182820181905260009190848201906040850190845b818110156148385783518352928401929184019160010161481c565b50909695505050505050565b6020808252600b908201526a16995c9bc8185b5bdd5b9d60aa1b604082015260600190565b60208082526014908201527337379039bab1b41031b7b63630b137b930ba37b960611b604082015260600190565b6020808252600f908201526e6e6f2073756368207061636b61676560881b604082015260600190565b6000816148cf576148cf61468e565b506000190190565b6020808252602b908201527f496e697469616c697a61626c653a20636f6e7472616374206973206e6f74206960408201526a6e697469616c697a696e6760a81b606082015260800190565b60006020828403121561493457600080fd5b8151610d0c81614173565b60006020828403121561495157600080fd5b8151610d0c81614115565b60005b8381101561497757818101518382015260200161495f565b83811115611c725750506000910152565b6000825161499a81846020870161495c565b9190910192915050565b60208152600082518060208401526149c381604085016020870161495c565b601f01601f1916919091016040019291505056fe1810672a3dad8f995260ba0777de0e36f462980ce02a3951804f83aac9c2d455a2646970667358221220fc9a4639c1dd63fd10c637d7305daba6d597b02877d1ec27325458d0e22f850c64736f6c634300080b0033",
  "linkReferences": {},
  "deployedLinkReferences": {}
}