{
  "_format": "hh-sol-artifact-1",
  "contractName": "ReBakedDAO",
  "sourceName": "contracts/ReBakedDAO.sol",
  "abi": [
    {
      "inputs": [
        {
          "internalType": "address",
          "name": "treasury_",
          "type": "address"
        },
        {
          "internalType": "uint256",
          "name": "feeDao_",
          "type": "uint256"
        },
        {
          "internalType": "uint256",
          "name": "feeObservers_",
          "type": "uint256"
        },
        {
          "internalType": "address",
          "name": "tokenFactory_",
          "type": "address"
        }
      ],
      "stateMutability": "nonpayable",
      "type": "constructor"
    },
    {
      "anonymous": false,
      "inputs": [
        {
          "indexed": true,
          "internalType": "bytes32",
          "name": "projectId",
          "type": "bytes32"
        },
        {
          "indexed": true,
          "internalType": "bytes32",
          "name": "packageId",
          "type": "bytes32"
        },
        {
          "indexed": false,
          "internalType": "address",
          "name": "collaborator",
          "type": "address"
        },
        {
          "indexed": false,
          "internalType": "uint256",
          "name": "mgp",
          "type": "uint256"
        }
      ],
      "name": "AddedCollaborator",
      "type": "event"
    },
    {
      "anonymous": false,
      "inputs": [
        {
          "indexed": true,
          "internalType": "bytes32",
          "name": "projectId",
          "type": "bytes32"
        },
        {
          "indexed": true,
          "internalType": "bytes32",
          "name": "packageId",
          "type": "bytes32"
        },
        {
          "indexed": false,
          "internalType": "address[]",
          "name": "collaborators",
          "type": "address[]"
        },
        {
          "indexed": false,
          "internalType": "uint256[]",
          "name": "mgps",
          "type": "uint256[]"
        }
      ],
      "name": "AddedCollaborators",
      "type": "event"
    },
    {
      "anonymous": false,
      "inputs": [
        {
          "indexed": true,
          "internalType": "bytes32",
          "name": "projectId",
          "type": "bytes32"
        },
        {
          "indexed": true,
          "internalType": "bytes32[]",
          "name": "packageId",
          "type": "bytes32[]"
        },
        {
          "indexed": false,
          "internalType": "address",
          "name": "observer",
          "type": "address"
        }
      ],
      "name": "AddedObserver",
      "type": "event"
    },
    {
      "anonymous": false,
      "inputs": [
        {
          "indexed": true,
          "internalType": "bytes32",
          "name": "projectId",
          "type": "bytes32"
        },
        {
          "indexed": true,
          "internalType": "bytes32",
          "name": "packageId",
          "type": "bytes32"
        },
        {
          "indexed": false,
          "internalType": "address[]",
          "name": "observers",
          "type": "address[]"
        }
      ],
      "name": "AddedObservers",
      "type": "event"
    },
    {
      "anonymous": false,
      "inputs": [
        {
          "indexed": true,
          "internalType": "bytes32",
          "name": "projectId",
          "type": "bytes32"
        },
        {
          "indexed": true,
          "internalType": "bytes32",
          "name": "packageId",
          "type": "bytes32"
        },
        {
          "indexed": false,
          "internalType": "address",
          "name": "collaborator",
          "type": "address"
        },
        {
          "indexed": false,
          "internalType": "bool",
          "name": "approve",
          "type": "bool"
        }
      ],
      "name": "ApprovedCollaborator",
      "type": "event"
    },
    {
      "anonymous": false,
      "inputs": [
        {
          "indexed": true,
          "internalType": "bytes32",
          "name": "projectId",
          "type": "bytes32"
        },
        {
          "indexed": true,
          "internalType": "bytes32",
          "name": "packageId",
          "type": "bytes32"
        },
        {
          "indexed": false,
          "internalType": "address[]",
          "name": "collaborators",
          "type": "address[]"
        },
        {
          "indexed": false,
          "internalType": "bool[]",
          "name": "approves",
          "type": "bool[]"
        }
      ],
      "name": "ApprovedCollaborators",
      "type": "event"
    },
    {
      "anonymous": false,
      "inputs": [
        {
          "indexed": true,
          "internalType": "bytes32",
          "name": "projectId",
          "type": "bytes32"
        }
      ],
      "name": "ApprovedProject",
      "type": "event"
    },
    {
      "anonymous": false,
      "inputs": [
        {
          "indexed": false,
          "internalType": "bytes32[]",
          "name": "projectIds",
          "type": "bytes32[]"
        }
      ],
      "name": "ApprovedProjects",
      "type": "event"
    },
    {
      "anonymous": false,
      "inputs": [
        {
          "indexed": false,
          "internalType": "uint256",
          "name": "feeDao",
          "type": "uint256"
        },
        {
          "indexed": false,
          "internalType": "uint256",
          "name": "feeObservers",
          "type": "uint256"
        }
      ],
      "name": "ChangedFees",
      "type": "event"
    },
    {
      "anonymous": false,
      "inputs": [
        {
          "indexed": true,
          "internalType": "bytes32",
          "name": "projectId",
          "type": "bytes32"
        },
        {
          "indexed": true,
          "internalType": "bytes32",
          "name": "packageId",
          "type": "bytes32"
        },
        {
          "indexed": false,
          "internalType": "uint256",
          "name": "budget",
          "type": "uint256"
        },
        {
          "indexed": false,
          "internalType": "uint256",
          "name": "bonus",
          "type": "uint256"
        }
      ],
      "name": "CreatedPackage",
      "type": "event"
    },
    {
      "anonymous": false,
      "inputs": [
        {
          "indexed": true,
          "internalType": "bytes32",
          "name": "projectId",
          "type": "bytes32"
        },
        {
          "indexed": false,
          "internalType": "bytes32[]",
          "name": "packageIds",
          "type": "bytes32[]"
        },
        {
          "indexed": false,
          "internalType": "uint256[]",
          "name": "budgets",
          "type": "uint256[]"
        },
        {
          "indexed": false,
          "internalType": "uint256[]",
          "name": "bonuses",
          "type": "uint256[]"
        }
      ],
      "name": "CreatedPackages",
      "type": "event"
    },
    {
      "anonymous": false,
      "inputs": [
        {
          "indexed": true,
          "internalType": "bytes32",
          "name": "projectId",
          "type": "bytes32"
        },
        {
          "indexed": false,
          "internalType": "address",
          "name": "initiator",
          "type": "address"
        },
        {
          "indexed": false,
          "internalType": "address",
          "name": "token",
          "type": "address"
        },
        {
          "indexed": false,
          "internalType": "uint256",
          "name": "budget",
          "type": "uint256"
        }
      ],
      "name": "CreatedProject",
      "type": "event"
    },
    {
      "anonymous": false,
      "inputs": [
        {
          "indexed": true,
          "internalType": "bytes32",
          "name": "projectId",
          "type": "bytes32"
        },
        {
          "indexed": true,
          "internalType": "bytes32",
          "name": "packageId",
          "type": "bytes32"
        },
        {
          "indexed": true,
          "internalType": "uint256",
          "name": "budgetLeft_",
          "type": "uint256"
        }
      ],
      "name": "FinishedPackage",
      "type": "event"
    },
    {
      "anonymous": false,
      "inputs": [
        {
          "indexed": true,
          "internalType": "bytes32",
          "name": "projectId",
          "type": "bytes32"
        }
      ],
      "name": "FinishedProject",
      "type": "event"
    },
    {
      "anonymous": false,
      "inputs": [
        {
          "indexed": true,
          "internalType": "address",
          "name": "previousOwner",
          "type": "address"
        },
        {
          "indexed": true,
          "internalType": "address",
          "name": "newOwner",
          "type": "address"
        }
      ],
      "name": "OwnershipTransferred",
      "type": "event"
    },
    {
      "anonymous": false,
      "inputs": [
        {
          "indexed": true,
          "internalType": "bytes32",
          "name": "projectId",
          "type": "bytes32"
        },
        {
          "indexed": true,
          "internalType": "bytes32",
          "name": "packageId",
          "type": "bytes32"
        },
        {
          "indexed": false,
          "internalType": "address",
          "name": "collaborator",
          "type": "address"
        },
        {
          "indexed": false,
          "internalType": "uint256",
          "name": "amount",
          "type": "uint256"
        }
      ],
      "name": "PaidBonus",
      "type": "event"
    },
    {
      "anonymous": false,
      "inputs": [
        {
          "indexed": true,
          "internalType": "bytes32",
          "name": "projectId",
          "type": "bytes32"
        },
        {
          "indexed": false,
          "internalType": "bytes32[]",
          "name": "packageIds",
          "type": "bytes32[]"
        },
        {
          "indexed": false,
          "internalType": "address",
          "name": "collaborator",
          "type": "address"
        },
        {
          "indexed": false,
          "internalType": "uint256",
          "name": "amount",
          "type": "uint256"
        }
      ],
      "name": "PaidBonuses",
      "type": "event"
    },
    {
      "anonymous": false,
      "inputs": [
        {
          "indexed": true,
          "internalType": "bytes32",
          "name": "projectId",
          "type": "bytes32"
        },
        {
          "indexed": false,
          "internalType": "uint256",
          "name": "amount",
          "type": "uint256"
        }
      ],
      "name": "PaidDao",
      "type": "event"
    },
    {
      "anonymous": false,
      "inputs": [
        {
          "indexed": true,
          "internalType": "bytes32",
          "name": "projectId",
          "type": "bytes32"
        },
        {
          "indexed": true,
          "internalType": "bytes32",
          "name": "packageId",
          "type": "bytes32"
        },
        {
          "indexed": false,
          "internalType": "address",
          "name": "collaborator",
          "type": "address"
        },
        {
          "indexed": false,
          "internalType": "uint256",
          "name": "amount",
          "type": "uint256"
        }
      ],
      "name": "PaidMgp",
      "type": "event"
    },
    {
      "anonymous": false,
      "inputs": [
        {
          "indexed": true,
          "internalType": "bytes32",
          "name": "projectId",
          "type": "bytes32"
        },
        {
          "indexed": false,
          "internalType": "bytes32[]",
          "name": "packageIds",
          "type": "bytes32[]"
        },
        {
          "indexed": false,
          "internalType": "address",
          "name": "collaborator",
          "type": "address"
        },
        {
          "indexed": false,
          "internalType": "uint256",
          "name": "amount",
          "type": "uint256"
        }
      ],
      "name": "PaidMgps",
      "type": "event"
    },
    {
      "anonymous": false,
      "inputs": [
        {
          "indexed": true,
          "internalType": "bytes32",
          "name": "projectId",
          "type": "bytes32"
        },
        {
          "indexed": true,
          "internalType": "bytes32",
          "name": "packageId",
          "type": "bytes32"
        },
        {
          "indexed": false,
          "internalType": "address",
          "name": "observer",
          "type": "address"
        },
        {
          "indexed": false,
          "internalType": "uint256",
          "name": "amount",
          "type": "uint256"
        }
      ],
      "name": "PaidObserverFee",
      "type": "event"
    },
    {
      "anonymous": false,
      "inputs": [
        {
          "indexed": true,
          "internalType": "bytes32",
          "name": "projectId",
          "type": "bytes32"
        },
        {
          "indexed": false,
          "internalType": "bytes32[]",
          "name": "packageIds",
          "type": "bytes32[]"
        },
        {
          "indexed": false,
          "internalType": "address",
          "name": "observer",
          "type": "address"
        },
        {
          "indexed": false,
          "internalType": "uint256",
          "name": "amount",
          "type": "uint256"
        }
      ],
      "name": "PaidObserverFees",
      "type": "event"
    },
    {
      "anonymous": false,
      "inputs": [
        {
          "indexed": true,
          "internalType": "bytes32",
          "name": "projectId",
          "type": "bytes32"
        },
        {
          "indexed": true,
          "internalType": "bytes32",
          "name": "packageId",
          "type": "bytes32"
        },
        {
          "indexed": false,
          "internalType": "address[]",
          "name": "collaborators",
          "type": "address[]"
        },
        {
          "indexed": false,
          "internalType": "uint256[]",
          "name": "scores",
          "type": "uint256[]"
        }
      ],
      "name": "SetBonusScores",
      "type": "event"
    },
    {
      "anonymous": false,
      "inputs": [
        {
          "indexed": true,
          "internalType": "bytes32",
          "name": "projectId",
          "type": "bytes32"
        }
      ],
      "name": "StartedProject",
      "type": "event"
    },
    {
      "inputs": [],
      "name": "PCT_PRECISION",
      "outputs": [
        {
          "internalType": "uint256",
          "name": "",
          "type": "uint256"
        }
      ],
      "stateMutability": "view",
      "type": "function"
    },
    {
      "inputs": [
        {
          "internalType": "bytes32",
          "name": "projectId_",
          "type": "bytes32"
        },
        {
          "internalType": "bytes32",
          "name": "packageId_",
          "type": "bytes32"
        },
        {
          "internalType": "address",
          "name": "collaborator_",
          "type": "address"
        },
        {
          "internalType": "uint256",
          "name": "mgp_",
          "type": "uint256"
        }
      ],
      "name": "addCollaborator",
      "outputs": [],
      "stateMutability": "nonpayable",
      "type": "function"
    },
    {
      "inputs": [
        {
          "internalType": "bytes32",
          "name": "projectId_",
          "type": "bytes32"
        },
        {
          "internalType": "bytes32",
          "name": "packageId_",
          "type": "bytes32"
        },
        {
          "internalType": "address[]",
          "name": "collaborators_",
          "type": "address[]"
        },
        {
          "internalType": "uint256[]",
          "name": "mgps_",
          "type": "uint256[]"
        }
      ],
      "name": "addCollaborators",
      "outputs": [],
      "stateMutability": "nonpayable",
      "type": "function"
    },
    {
      "inputs": [
        {
          "internalType": "bytes32",
          "name": "projectId_",
          "type": "bytes32"
        },
        {
          "internalType": "bytes32[]",
          "name": "packageId_",
          "type": "bytes32[]"
        },
        {
          "internalType": "address",
          "name": "observer_",
          "type": "address"
        }
      ],
      "name": "addObserver",
      "outputs": [],
      "stateMutability": "nonpayable",
      "type": "function"
    },
    {
      "inputs": [
        {
          "internalType": "bytes32",
          "name": "projectId_",
          "type": "bytes32"
        },
        {
          "internalType": "bytes32",
          "name": "packageId_",
          "type": "bytes32"
        },
        {
          "internalType": "address[]",
          "name": "observers_",
          "type": "address[]"
        }
      ],
      "name": "addObservers",
      "outputs": [],
      "stateMutability": "nonpayable",
      "type": "function"
    },
    {
      "inputs": [
        {
          "internalType": "bytes32",
          "name": "projectId_",
          "type": "bytes32"
        },
        {
          "internalType": "bytes32",
          "name": "packageId_",
          "type": "bytes32"
        },
        {
          "internalType": "address",
          "name": "collaborator_",
          "type": "address"
        },
        {
          "internalType": "bool",
          "name": "approve_",
          "type": "bool"
        }
      ],
      "name": "approveCollaborator",
      "outputs": [],
      "stateMutability": "nonpayable",
      "type": "function"
    },
    {
      "inputs": [
        {
          "internalType": "bytes32",
          "name": "projectId_",
          "type": "bytes32"
        },
        {
          "internalType": "bytes32",
          "name": "packageId_",
          "type": "bytes32"
        },
        {
          "internalType": "address[]",
          "name": "collaborators_",
          "type": "address[]"
        },
        {
          "internalType": "bool[]",
          "name": "approves_",
          "type": "bool[]"
        }
      ],
      "name": "approveCollaborators",
      "outputs": [],
      "stateMutability": "nonpayable",
      "type": "function"
    },
    {
      "inputs": [
        {
          "internalType": "bytes32",
          "name": "_projectId",
          "type": "bytes32"
        },
        {
          "internalType": "bytes32",
          "name": "_packageId",
          "type": "bytes32"
        },
        {
          "internalType": "address",
          "name": "_collaborator",
          "type": "address"
        }
      ],
      "name": "approvePayment",
      "outputs": [],
      "stateMutability": "nonpayable",
      "type": "function"
    },
    {
      "inputs": [
        {
          "internalType": "bytes32",
          "name": "projectId_",
          "type": "bytes32"
        }
      ],
      "name": "approveProject",
      "outputs": [],
      "stateMutability": "nonpayable",
      "type": "function"
    },
    {
      "inputs": [
        {
          "internalType": "bytes32[]",
          "name": "projectIds_",
          "type": "bytes32[]"
        }
      ],
      "name": "approveProjects",
      "outputs": [],
      "stateMutability": "nonpayable",
      "type": "function"
    },
    {
      "inputs": [
        {
          "internalType": "bytes32",
          "name": "projectId_",
          "type": "bytes32"
        },
        {
          "internalType": "bytes32",
          "name": "packageId_",
          "type": "bytes32"
        },
        {
          "internalType": "address[]",
          "name": "collaborator_",
          "type": "address[]"
        },
        {
          "internalType": "address[]",
          "name": "observer_",
          "type": "address[]"
        },
        {
          "internalType": "uint256",
          "name": "toBeReverted_",
          "type": "uint256"
        }
      ],
      "name": "cancelPackage",
      "outputs": [],
      "stateMutability": "nonpayable",
      "type": "function"
    },
    {
      "inputs": [
        {
          "internalType": "uint256",
          "name": "feeDao_",
          "type": "uint256"
        },
        {
          "internalType": "uint256",
          "name": "feeObservers_",
          "type": "uint256"
        }
      ],
      "name": "changeFees",
      "outputs": [],
      "stateMutability": "nonpayable",
      "type": "function"
    },
    {
      "inputs": [
        {
          "internalType": "bytes32",
          "name": "projectId_",
          "type": "bytes32"
        },
        {
          "internalType": "uint256",
          "name": "budget_",
          "type": "uint256"
        },
        {
          "internalType": "uint256",
          "name": "bonus_",
          "type": "uint256"
        },
        {
          "internalType": "uint256",
          "name": "observerBudget_",
          "type": "uint256"
        },
        {
          "internalType": "uint256",
          "name": "budgetWithDeduction_",
          "type": "uint256"
        }
      ],
      "name": "createPackage",
      "outputs": [
        {
          "internalType": "bytes32",
          "name": "packageId_",
          "type": "bytes32"
        }
      ],
      "stateMutability": "nonpayable",
      "type": "function"
    },
    {
      "inputs": [
        {
          "internalType": "address",
          "name": "token_",
          "type": "address"
        },
        {
          "internalType": "uint256",
          "name": "budget_",
          "type": "uint256"
        }
      ],
      "name": "createProject",
      "outputs": [
        {
          "internalType": "bytes32",
          "name": "projectId_",
          "type": "bytes32"
        }
      ],
      "stateMutability": "nonpayable",
      "type": "function"
    },
    {
      "inputs": [],
      "name": "feeDao",
      "outputs": [
        {
          "internalType": "uint256",
          "name": "",
          "type": "uint256"
        }
      ],
      "stateMutability": "view",
      "type": "function"
    },
    {
      "inputs": [],
      "name": "feeObservers",
      "outputs": [
        {
          "internalType": "uint256",
          "name": "",
          "type": "uint256"
        }
      ],
      "stateMutability": "view",
      "type": "function"
    },
    {
      "inputs": [
        {
          "internalType": "bytes32",
          "name": "projectId_",
          "type": "bytes32"
        },
        {
          "internalType": "bytes32",
          "name": "packageId_",
          "type": "bytes32"
        }
      ],
      "name": "finishPackage",
      "outputs": [
        {
          "internalType": "uint256",
          "name": "budgetLeft_",
          "type": "uint256"
        }
      ],
      "stateMutability": "nonpayable",
      "type": "function"
    },
    {
      "inputs": [
        {
          "internalType": "bytes32",
          "name": "projectId_",
          "type": "bytes32"
        }
      ],
      "name": "finishProject",
      "outputs": [],
      "stateMutability": "nonpayable",
      "type": "function"
    },
    {
      "inputs": [
        {
          "internalType": "bytes32",
          "name": "projectId_",
          "type": "bytes32"
        },
        {
          "internalType": "bytes32",
          "name": "packageId_",
          "type": "bytes32"
        },
        {
          "internalType": "address",
          "name": "collaborator_",
          "type": "address"
        }
      ],
      "name": "getBonus",
      "outputs": [
        {
          "internalType": "uint256",
          "name": "amount_",
          "type": "uint256"
        }
      ],
      "stateMutability": "nonpayable",
      "type": "function"
    },
    {
      "inputs": [
        {
          "internalType": "bytes32",
          "name": "projectId_",
          "type": "bytes32"
        },
        {
          "internalType": "bytes32",
          "name": "packageId_",
          "type": "bytes32"
        },
        {
          "internalType": "address",
          "name": "collaborator_",
          "type": "address"
        }
      ],
      "name": "getCollaboratorData",
      "outputs": [
        {
          "components": [
            {
              "internalType": "uint256",
              "name": "mgp",
              "type": "uint256"
            },
            {
              "internalType": "uint256",
              "name": "timeMgpApproved",
              "type": "uint256"
            },
            {
              "internalType": "uint256",
              "name": "timeMgpPaid",
              "type": "uint256"
            },
            {
              "internalType": "uint256",
              "name": "timeBonusPaid",
              "type": "uint256"
            },
            {
              "internalType": "uint256",
              "name": "bonusScore",
              "type": "uint256"
            },
            {
              "internalType": "bool",
              "name": "approvedMGPForDispute",
              "type": "bool"
            },
            {
              "internalType": "bool",
              "name": "approvedBonusForDispute",
              "type": "bool"
            },
            {
              "internalType": "bool",
              "name": "isDisputeRaised",
              "type": "bool"
            },
            {
              "internalType": "bool",
              "name": "isMGPPaid",
              "type": "bool"
            },
            {
              "internalType": "bool",
              "name": "isBonusPaid",
              "type": "bool"
            },
            {
              "internalType": "bool",
              "name": "isRemoved",
              "type": "bool"
            }
          ],
          "internalType": "struct Collaborator",
          "name": "",
          "type": "tuple"
        }
      ],
      "stateMutability": "view",
      "type": "function"
    },
    {
      "inputs": [
        {
          "internalType": "bytes32",
          "name": "projectId_",
          "type": "bytes32"
        },
        {
          "internalType": "bytes32",
          "name": "packageId_",
          "type": "bytes32"
        },
        {
          "internalType": "address",
          "name": "collaborator_",
          "type": "address"
        }
      ],
      "name": "getMgp",
      "outputs": [
        {
          "internalType": "uint256",
          "name": "amount_",
          "type": "uint256"
        }
      ],
      "stateMutability": "nonpayable",
      "type": "function"
    },
    {
      "inputs": [
        {
          "internalType": "bytes32",
          "name": "projectId_",
          "type": "bytes32"
        },
        {
          "internalType": "bytes32",
          "name": "packageId_",
          "type": "bytes32"
        },
        {
          "internalType": "address",
          "name": "observer_",
          "type": "address"
        }
      ],
      "name": "getObserverData",
      "outputs": [
        {
          "components": [
            {
              "internalType": "uint256",
              "name": "timeCreated",
              "type": "uint256"
            },
            {
              "internalType": "uint256",
              "name": "timePaid",
              "type": "uint256"
            },
            {
              "internalType": "bool",
              "name": "isFeePaid",
              "type": "bool"
            },
            {
              "internalType": "uint256",
              "name": "amountToBePaid",
              "type": "uint256"
            },
            {
              "internalType": "bool",
              "name": "isRemoved",
              "type": "bool"
            }
          ],
          "internalType": "struct Observer",
          "name": "",
          "type": "tuple"
        }
      ],
      "stateMutability": "view",
      "type": "function"
    },
    {
      "inputs": [
        {
          "internalType": "bytes32",
          "name": "projectId_",
          "type": "bytes32"
        },
        {
          "internalType": "bytes32",
          "name": "packageId_",
          "type": "bytes32"
        }
      ],
      "name": "getObserverFee",
      "outputs": [
        {
          "internalType": "uint256",
          "name": "amount_",
          "type": "uint256"
        }
      ],
      "stateMutability": "nonpayable",
      "type": "function"
    },
    {
      "inputs": [
        {
          "internalType": "bytes32",
          "name": "projectId_",
          "type": "bytes32"
        },
        {
          "internalType": "bytes32[]",
          "name": "packageIds_",
          "type": "bytes32[]"
        }
      ],
      "name": "getObserverFees",
      "outputs": [
        {
          "internalType": "uint256",
          "name": "amount_",
          "type": "uint256"
        }
      ],
      "stateMutability": "nonpayable",
      "type": "function"
    },
    {
      "inputs": [
        {
          "internalType": "bytes32",
          "name": "projectId_",
          "type": "bytes32"
        },
        {
          "internalType": "bytes32",
          "name": "packageId_",
          "type": "bytes32"
        }
      ],
      "name": "getPackageData",
      "outputs": [
        {
          "components": [
            {
              "internalType": "uint256",
              "name": "budget",
              "type": "uint256"
            },
            {
              "internalType": "uint256",
              "name": "budgetAllocated",
              "type": "uint256"
            },
            {
              "internalType": "uint256",
              "name": "budgetPaid",
              "type": "uint256"
            },
            {
              "internalType": "uint256",
              "name": "budgetObservers",
              "type": "uint256"
            },
            {
              "internalType": "uint256",
              "name": "budgetObserversPaid",
              "type": "uint256"
            },
            {
              "internalType": "uint256",
              "name": "bonus",
              "type": "uint256"
            },
            {
              "internalType": "uint256",
              "name": "bonusAllocated",
              "type": "uint256"
            },
            {
              "internalType": "uint256",
              "name": "bonusPaid",
              "type": "uint256"
            },
            {
              "internalType": "uint256",
              "name": "timeCreated",
              "type": "uint256"
            },
            {
              "internalType": "uint256",
              "name": "timeFinished",
              "type": "uint256"
            },
            {
              "internalType": "uint256",
              "name": "totalObservers",
              "type": "uint256"
            },
            {
              "internalType": "uint256",
              "name": "totalCollaborators",
              "type": "uint256"
            },
            {
              "internalType": "uint256",
              "name": "approvedCollaborators",
              "type": "uint256"
            },
            {
              "internalType": "bool",
              "name": "isActive",
              "type": "bool"
            },
            {
              "internalType": "uint256",
              "name": "timeCanceled",
              "type": "uint256"
            }
          ],
          "internalType": "struct Package",
          "name": "",
          "type": "tuple"
        },
        {
          "internalType": "uint256",
          "name": "",
          "type": "uint256"
        }
      ],
      "stateMutability": "view",
      "type": "function"
    },
    {
      "inputs": [
        {
          "internalType": "bytes32",
          "name": "projectId_",
          "type": "bytes32"
        }
      ],
      "name": "getProjectData",
      "outputs": [
        {
          "components": [
            {
              "internalType": "address",
              "name": "initiator",
              "type": "address"
            },
            {
              "internalType": "address",
              "name": "token",
              "type": "address"
            },
            {
              "internalType": "bool",
              "name": "isOwnToken",
              "type": "bool"
            },
            {
              "internalType": "uint256",
              "name": "budget",
              "type": "uint256"
            },
            {
              "internalType": "uint256",
              "name": "budgetAllocated",
              "type": "uint256"
            },
            {
              "internalType": "uint256",
              "name": "budgetPaid",
              "type": "uint256"
            },
            {
              "internalType": "uint256",
              "name": "timeCreated",
              "type": "uint256"
            },
            {
              "internalType": "uint256",
              "name": "timeApproved",
              "type": "uint256"
            },
            {
              "internalType": "uint256",
              "name": "timeStarted",
              "type": "uint256"
            },
            {
              "internalType": "uint256",
              "name": "timeFinished",
              "type": "uint256"
            },
            {
              "internalType": "uint256",
              "name": "totalPackages",
              "type": "uint256"
            },
            {
              "internalType": "uint256",
              "name": "totalFinishedPackages",
              "type": "uint256"
            }
          ],
          "internalType": "struct Project",
          "name": "",
          "type": "tuple"
        }
      ],
      "stateMutability": "view",
      "type": "function"
    },
    {
      "inputs": [
        {
          "internalType": "bytes32",
          "name": "_projectId",
          "type": "bytes32"
        },
        {
          "internalType": "bytes32",
          "name": "_packageId",
          "type": "bytes32"
        },
        {
          "internalType": "address",
          "name": "_collaborator",
          "type": "address"
        }
      ],
      "name": "getRejectedPayment",
      "outputs": [
        {
          "internalType": "uint256",
          "name": "",
          "type": "uint256"
        },
        {
          "internalType": "uint256",
          "name": "",
          "type": "uint256"
        }
      ],
      "stateMutability": "view",
      "type": "function"
    },
    {
      "inputs": [],
      "name": "owner",
      "outputs": [
        {
          "internalType": "address",
          "name": "",
          "type": "address"
        }
      ],
      "stateMutability": "view",
      "type": "function"
    },
    {
      "inputs": [
        {
          "internalType": "bytes32",
          "name": "projectId_",
          "type": "bytes32"
        },
        {
          "internalType": "bytes32",
          "name": "packageId_",
          "type": "bytes32"
        },
        {
          "internalType": "address",
          "name": "collaborator_",
          "type": "address"
        }
      ],
      "name": "payMgp",
      "outputs": [],
      "stateMutability": "nonpayable",
      "type": "function"
    },
    {
      "inputs": [
        {
          "internalType": "bytes32",
          "name": "projectId_",
          "type": "bytes32"
        },
        {
          "internalType": "bytes32",
          "name": "packageId_",
          "type": "bytes32"
        },
        {
          "internalType": "address",
          "name": "observer_",
          "type": "address"
        }
      ],
      "name": "payObserverFee",
      "outputs": [],
      "stateMutability": "nonpayable",
      "type": "function"
    },
    {
      "inputs": [
        {
          "internalType": "bytes32",
          "name": "_projectId",
          "type": "bytes32"
        },
        {
          "internalType": "bytes32",
          "name": "_packageId",
          "type": "bytes32"
        },
        {
          "internalType": "address",
          "name": "_collaborator",
          "type": "address"
        }
      ],
      "name": "raiseDispute",
      "outputs": [],
      "stateMutability": "nonpayable",
      "type": "function"
    },
    {
      "inputs": [
        {
          "internalType": "bytes32",
          "name": "_projectId",
          "type": "bytes32"
        },
        {
          "internalType": "bytes32",
          "name": "_packageId",
          "type": "bytes32"
        },
        {
          "internalType": "address",
          "name": "_collaborator",
          "type": "address"
        }
      ],
      "name": "rejectPayment",
      "outputs": [],
      "stateMutability": "nonpayable",
      "type": "function"
    },
    {
      "inputs": [
        {
          "internalType": "bytes32",
          "name": "projectId_",
          "type": "bytes32"
        },
        {
          "internalType": "bytes32",
          "name": "packageId_",
          "type": "bytes32"
        },
        {
          "internalType": "address",
          "name": "collaborator_",
          "type": "address"
        },
        {
          "internalType": "bool",
          "name": "packageStatus",
          "type": "bool"
        }
      ],
      "name": "removeCollaborator",
      "outputs": [],
      "stateMutability": "nonpayable",
      "type": "function"
    },
    {
      "inputs": [
        {
          "internalType": "bytes32",
          "name": "projectId_",
          "type": "bytes32"
        },
        {
          "internalType": "bytes32[]",
          "name": "packageId_",
          "type": "bytes32[]"
        },
        {
          "internalType": "address",
          "name": "observer_",
          "type": "address"
        },
        {
          "internalType": "bool[]",
          "name": "packageStatus",
          "type": "bool[]"
        }
      ],
      "name": "removeObserver",
      "outputs": [],
      "stateMutability": "nonpayable",
      "type": "function"
    },
    {
      "inputs": [],
      "name": "renounceOwnership",
      "outputs": [],
      "stateMutability": "nonpayable",
      "type": "function"
    },
    {
      "inputs": [
        {
          "internalType": "bytes32",
          "name": "projectId_",
          "type": "bytes32"
        },
        {
          "internalType": "bytes32",
          "name": "packageId_",
          "type": "bytes32"
        },
        {
          "internalType": "address[]",
          "name": "collaborators_",
          "type": "address[]"
        },
        {
          "internalType": "uint256[]",
          "name": "scores_",
          "type": "uint256[]"
        }
      ],
      "name": "setBonusScores",
      "outputs": [],
      "stateMutability": "nonpayable",
      "type": "function"
    },
    {
      "inputs": [
        {
          "internalType": "bytes32",
          "name": "projectId_",
          "type": "bytes32"
        }
      ],
      "name": "startProject",
      "outputs": [],
      "stateMutability": "nonpayable",
      "type": "function"
    },
    {
      "inputs": [],
      "name": "tokenFactory",
      "outputs": [
        {
          "internalType": "address",
          "name": "",
          "type": "address"
        }
      ],
      "stateMutability": "view",
      "type": "function"
    },
    {
      "inputs": [
        {
          "internalType": "address",
          "name": "newOwner",
          "type": "address"
        }
      ],
      "name": "transferOwnership",
      "outputs": [],
      "stateMutability": "nonpayable",
      "type": "function"
    },
    {
      "inputs": [],
      "name": "treasury",
      "outputs": [
        {
          "internalType": "address",
          "name": "",
          "type": "address"
        }
      ],
      "stateMutability": "view",
      "type": "function"
    },
    {
      "inputs": [
        {
          "internalType": "address",
          "name": "treasury_",
          "type": "address"
        }
      ],
      "name": "updatetreasury",
      "outputs": [],
      "stateMutability": "nonpayable",
      "type": "function"
    }
  ],
  "bytecode": "0x60806040523480156200001157600080fd5b50604051620055ba380380620055ba8339810160408190526200003491620001a7565b6200003f3362000094565b60018055600880546001600160a01b0319166001600160a01b0386161790556200006a8383620000e4565b600b80546001600160a01b0319166001600160a01b039290921691909117905550620001f2915050565b600080546001600160a01b038381166001600160a01b0319831681178455604051919092169283917f8be0079c531659141344cd1fd0a4f28419497f9722a3daafe3b4186f6b6457e09190a35050565b6000546001600160a01b03163314620001435760405162461bcd60e51b815260206004820181905260248201527f4f776e61626c653a2063616c6c6572206973206e6f7420746865206f776e6572604482015260640160405180910390fd5b6009829055600a81905560408051838152602081018390527f61d562452a06533732ce798033305191c016218d27a87a5f62dcfb8911d417e1910160405180910390a15050565b80516001600160a01b0381168114620001a257600080fd5b919050565b60008060008060808587031215620001be57600080fd5b620001c9856200018a565b93506020850151925060408501519150620001e7606086016200018a565b905092959194509250565b6153b880620002026000396000f3fe608060405234801561001057600080fd5b50600436106102535760003560e01c8063954ce27411610146578063be06555e116100c3578063e77772fe11610087578063e77772fe1461057b578063e82d65721461058e578063ec104ff1146105a1578063f2fde38b146105b4578063f51e370b146105c7578063f90395f8146105da57600080fd5b8063be06555e14610525578063dccf6f2114610538578063de5d98e61461054b578063e1d845141461055e578063e43d77e81461056857600080fd5b8063ad7cb1aa1161010a578063ad7cb1aa146104c6578063b078d085146104d9578063b878b2f0146104ec578063b8c58fce146104ff578063bab304321461051257600080fd5b8063954ce2741461045c57806396a4f7511461046f57806399fb933914610482578063a22ff7bc146104aa578063a8cd2789146104b357600080fd5b8063518a1e7a116101d45780636e578992116101985780636e5789921461040a578063715018a61461041d57806385ceab29146104255780638da5cb5b14610438578063901807691461044957600080fd5b8063518a1e7a1461034d578063573d69e514610360578063590ab7db1461037357806361d027b3146103cc57806367ddf8e2146103f757600080fd5b806324f87b6a1161021b57806324f87b6a146102ea5780632e48da73146102fd5780633ea9734d1461031e5780634e054f50146103275780634f18c9691461033a57600080fd5b80630eae9d8814610258578063200004781461026d5780632008002e1461029757806321ecff5b146102b757806323d683e7146102ca575b600080fd5b61026b61026636600461467a565b6105ed565b005b61028061027b3660046146c2565b61077b565b60405161028e9291906146e4565b60405180910390f35b6102aa6102a536600461479f565b6108d8565b60405161028e91906147d4565b61026b6102c53660046146c2565b610a01565b6102dd6102d8366004614873565b610a73565b60405161028e919061488c565b61026b6102f836600461479f565b610b9a565b61031061030b3660046146c2565b610dba565b60405190815260200161028e565b610310600a5481565b610310610335366004614a0b565b610ef6565b61026b610348366004614ab4565b611003565b61026b61035b36600461479f565b611264565b61031061036e3660046146c2565b6112f7565b61038661038136600461479f565b611389565b60405161028e9190600060a08201905082518252602083015160208301526040830151151560408301526060830151606083015260808301511515608083015292915050565b6008546103df906001600160a01b031681565b6040516001600160a01b03909116815260200161028e565b61026b610405366004614b7f565b611434565b61026b61041836600461479f565b611480565b61026b611634565b61026b610433366004614873565b61166a565b6000546001600160a01b03166103df565b61026b610457366004614bfe565b6116da565b61031061046a36600461479f565b611838565b61026b61047d36600461479f565b611a39565b61049561049036600461479f565b611cba565b6040805192835260208301919091520161028e565b61031060095481565b61026b6104c1366004614873565b611d20565b61026b6104d4366004614c75565b611d81565b6103106104e736600461479f565b611ed3565b61026b6104fa366004614cc3565b612107565b61026b61050d366004614ab4565b61220e565b61026b610520366004614d42565b6123d8565b61026b610533366004614d91565b612755565b61026b61054636600461467a565b612876565b610310610559366004614e14565b6128f1565b610310620f424081565b61026b610576366004614e4f565b612a2a565b600b546103df906001600160a01b031681565b61031061059c366004614e84565b612ae7565b61026b6105af366004614eae565b612bb1565b61026b6105c2366004614b7f565b612cf3565b61026b6105d536600461479f565b612d8e565b61026b6105e8366004614873565b612e25565b60008481526007602052604090205484906001600160a01b0316331461062e5760405162461bcd60e51b815260040161062590614eeb565b60405180910390fd5b6001821515141561065457610644858585611480565b61064f858585612e6a565b61071a565b600085815260036020908152604080832087845282528083206001600160a01b03871684528252808320548884526004835281842088855290925282206001018054919290916106a5908490614f44565b909155505060008581526004602090815260408083208784529091528120600b018054600192906106d7908490614f44565b909155505060008581526004602090815260408083208784529091528120600c01805460019290610709908490614f44565b9091555061071a9050858585612f1c565b600085815260036020908152604080832087845282528083206001600160a01b03871684528252808320600490810154898552908352818420888552909252822060010180549192909161076f908490614f44565b90915550505050505050565b6107f6604051806101e0016040528060008152602001600081526020016000815260200160008152602001600081526020016000815260200160008152602001600081526020016000815260200160008152602001600081526020016000815260200160008152602001600015158152602001600081525090565b60008381526004602090815260408083208584529091528120600a81015460038201546108239190614f5b565b604080516101e08101825283548152600184015460208201526002840154918101919091526003830154606082015260048301546080820152600583015460a0820152600683015460c0820152600783015460e082015260088301546101008201526009830154610120820152600a830154610140820152600b830154610160820152600c830154610180820152600d83015460ff1615156101a0820152600e909201546101c0830152909590945092505050565b6040805161016081018252600080825260208201819052918101829052606081018290526080810182905260a0810182905260c0810182905260e081018290526101008101829052610120810182905261014081019190915250600083815260036020818152604080842086855282528084206001600160a01b0386168552825292839020835161016081018552815481526001820154928101929092526002810154938201939093529082015460608201526004820154608082015260059091015460ff808216151560a08401526101008083048216151560c08501526201000083048216151560e0850152630100000083048216151590840152640100000000820481161515610120840152650100000000009091041615156101408201525b9392505050565b6000546001600160a01b03163314610a2b5760405162461bcd60e51b815260040161062590614f7d565b6009829055600a81905560408051838152602081018390527f61d562452a06533732ce798033305191c016218d27a87a5f62dcfb8911d417e191015b60405180910390a15050565b610aeb60405180610180016040528060006001600160a01b0316815260200160006001600160a01b031681526020016000151581526020016000815260200160008152602001600081526020016000815260200160008152602001600081526020016000815260200160008152602001600081525090565b5060009081526007602081815260409283902083516101808101855281546001600160a01b039081168252600183015490811693820193909352600160a01b90920460ff161515938201939093526002830154606082015260038301546080820152600483015460a0820152600583015460c0820152600683015460e08201529082015461010082015260088201546101208201526009820154610140820152600a9091015461016082015290565b60008381526007602052604090205483906001600160a01b03163314610bd25760405162461bcd60e51b815260040161062590614eeb565b6000848152600460209081526040808320868452909152902060090154610c305760405162461bcd60e51b81526020600482015260126024820152715061636b6167652049732052756e6e696e6760701b6044820152606401610625565b600084815260026020818152604080842087855282528084206001600160a01b0387168552909152909120015460ff1615610cad5760405162461bcd60e51b815260206004820152601960248201527f4f627365727665722046656520416c72656164792050616964000000000000006044820152606401610625565b60008481526004602090815260408083208684529091528120600a810154600390910154610cdb9190614f5b565b905080600760008781526020019081526020016000206004016000828254610d039190614fb2565b9091555050600085815260046020908152604080832087845290915281206002018054839290610d34908490614fb2565b9091555050600085815260026020818152604080842088855282528084206001600160a01b0388168552909152909120426001808301919091559101805460ff19169091179055610db383610d9183670de0b6b3a7640000614fca565b6000888152600760205260409020600101546001600160a01b03169190612fa6565b5050505050565b60008281526007602052604081205483906001600160a01b03163314610df25760405162461bcd60e51b815260040161062590614eeb565b610dfc8484613009565b506000848152600460209081526040808320868452909152902060018101549054610e279190614f44565b60008581526004602090815260408083208784529091529020600a0154909250610e75576000848152600460209081526040808320868452909152902060030154610e729083614fb2565b91505b60008481526004602090815260408083208684529091529020600b0154610ec0576000848152600460209081526040808320868452909152902060050154610ebd9083614fb2565b91505b8183857fca0673658d6abd07a7992b1c692276e95e5693b83c44ebcbc0f5661add8f274f60405160405180910390a45092915050565b600060026001541415610f1b5760405162461bcd60e51b815260040161062590614fe9565b600260015581518290610f405760405162461bcd60e51b815260040161062590615020565b60005b8351811015610fb157610f6f85858381518110610f6257610f62615063565b602002602001015161309d565b50610f9385858381518110610f8657610f86615063565b602002602001015161316d565b610f9d9084614fb2565b925080610fa981615079565b915050610f43565b50610fbc848361318f565b837f45ce9657db7c305f37e84f5f088485cb39b13f0c8daf5be200ae6c0e569def81843385604051610ff0939291906150cf565b60405180910390a2506001805592915050565b808051600014156110265760405162461bcd60e51b815260040161062590615020565b6000546001600160a01b031633146110505760405162461bcd60e51b815260040161062590614f7d565b81518351146110b65760405162461bcd60e51b815260206004820152602c60248201527f636f6c6c61626f7261746f72732720616e642073636f72657327206c656e677460448201526b1a081b5a5cdb585d18da195960a21b6064820152608401610625565b60008060005b84518110156110fe578481815181106110d7576110d7615063565b6020026020010151826110ea9190614fb2565b9150806110f681615079565b9150506110bc565b50600087815260046020908152604080832089845290915290206005015481111561112857600080fd5b60005b85518110156112105760008881526003602090815260408083208a84529091528120875190919088908490811061116457611164615063565b60200260200101516001600160a01b03166001600160a01b0316815260200190815260200160002060040154600014156111fe576111d688888884815181106111af576111af615063565b60200260200101518885815181106111c9576111c9615063565b6020026020010151613206565b8481815181106111e8576111e8615063565b6020026020010151836111fb9190614fb2565b92505b8061120881615079565b91505061112b565b50611220878784620f4240613299565b85877fd2099d348c0c424f42abe035ccbc33b18ad6476940d795977e01d8b3309aa6508787604051611253929190615136565b60405180910390a350505050505050565b6000546001600160a01b0316331461128e5760405162461bcd60e51b815260040161062590614f7d565b6112998383836132f9565b506112a58383836133a0565b6001600160a01b031660008181526006602090815260408083208584528252808320805460ff1916905594825260038152848220938252928352838120918152915220600501805462ff000019169055565b60006002600154141561131c5760405162461bcd60e51b815260040161062590614fe9565b600260015561132b838361309d565b50611336838361316d565b9050611342838261318f565b6040805133815260208101839052839185917ff791dbe60269baac78be1afe586f70aa816e7a19b3ff88e228ca638e41142dae910160405180910390a36001805592915050565b6113bf6040518060a001604052806000815260200160008152602001600015158152602001600081526020016000151581525090565b5060009283526002602081815260408086209486529381528385206001600160a01b0393909316855291825292829020825160a081018452815481526001820154928101929092529283015460ff90811615159282019290925260038301546060820152600490920154161515608082015290565b6000546001600160a01b0316331461145e5760405162461bcd60e51b815260040161062590614f7d565b600880546001600160a01b0319166001600160a01b0392909216919091179055565b60008381526007602052604090205483906001600160a01b031633146114b85760405162461bcd60e51b815260040161062590614eeb565b6001600160a01b038216600090815260066020908152604080832086845290915290205460ff16156114e957600080fd5b600084815260036020908152604080832086845282528083206001600160a01b03861684529091529020600501546301000000900460ff16156115595760405162461bcd60e51b81526020600482015260086024820152671351d40814185a5960c21b6044820152606401610625565b600084815260036020908152604080832086845282528083206001600160a01b0386168452825280832060058101805463ff0000001916630100000017905554878452600790925282206004018054919283926115b7908490614fb2565b90915550506000858152600460209081526040808320878452909152812060020180548392906115e8908490614fb2565b9091555050600085815260036020908152604080832087845282528083206001600160a01b0387168452909152902042600290910155610db383610d9183670de0b6b3a7640000614fca565b6000546001600160a01b0316331461165e5760405162461bcd60e51b815260040161062590614f7d565b61166860006133d3565b565b60008181526007602052604090205481906001600160a01b031633146116a25760405162461bcd60e51b815260040161062590614eeb565b6116ab82613423565b60405182907fc28b1ad1673f9075256e65cedb3d5299df51d627b7e04f4747729a0f43ba43a090600090a25050565b6000546001600160a01b031633146117045760405162461bcd60e51b815260040161062590614f7d565b81516117225760405162461bcd60e51b815260040161062590615020565b80518251146117995760405162461bcd60e51b815260206004820152603a60248201527f636f6c6c61626f7261746f72732720616e6420617070726f766573272061727260448201527f6179206c656e67746820617265206e6f74207468652073616d650000000000006064820152608401610625565b60005b82518110156117f6576117e385858584815181106117bc576117bc615063565b60200260200101518585815181106117d6576117d6615063565b6020026020010151613493565b50806117ee81615079565b91505061179c565b5082847f634eed230d8ef3bf02b3266f4e5b494c91147aa5edb8af2bc66d3c19608b2067848460405161182a92919061518d565b60405180910390a350505050565b60006002600154141561185d5760405162461bcd60e51b815260040161062590614fe9565b6002600155336001600160a01b038316146118ba5760405162461bcd60e51b815260206004820152601b60248201527f4f6e6c7920436f6c6c61626f7261746f722043616e2043616c6c2100000000006044820152606401610625565b6001600160a01b038216600090815260066020908152604080832086845290915290205460ff16156118eb57600080fd5b600084815260036020908152604080832086845282528083206001600160a01b0386168452909152902060050154640100000000900460ff166119655760405162461bcd60e51b8152602060048201526012602482015271109bdb9d5cc8185b1c9958591e481c185a5960721b6044820152606401610625565b506000838152600360209081526040808320858452825280832033845280835281842060048101546005918201805464ff0000000019166401000000001790556001600160a01b03871686529190935292200154610100900460ff161515600114156119db576119d68484836135c2565b6119e6565b6119e6848483613655565b6119f0848261318f565b6040805133815260208101839052849186917f35b08d221256dcde7a569c4734e621df9f9ef901d9fc9f418780634c5b10261f91015b60405180910390a3600180559392505050565b6000546001600160a01b03163314611a635760405162461bcd60e51b815260040161062590614f7d565b6001600160a01b038116600090815260066020908152604080832085845290915290205460ff16611acf5760405162461bcd60e51b81526020600482015260166024820152752234b9b83aba329024b9902932b8bab4b932b217171760511b6044820152606401610625565b600083815260036020908152604080832085845282528083206001600160a01b03851684529091529020600501546301000000900460ff1615611b4b5760405162461bcd60e51b8152602060048201526014602482015273416c7265616479204d475020436c61696d65642160601b6044820152606401610625565b600083815260036020908152604080832085845282528083206001600160a01b0385168452909152902060050154640100000000900460ff1615611bca5760405162461bcd60e51b8152602060048201526016602482015275416c726561647920426f6e757320436c61696d65642160501b6044820152606401610625565b600083815260036020908152604080832085845282528083206001600160a01b03808616855290835281842080546004909101548886526007909452918420549193911690611c198385614fb2565b600088815260076020908152604080832060010154600383528184208b855283528184206001600160a01b038b8116865290845282852085815560048101869055600501805464ffffff0000191662010000179055600684528285208d86529093529220805460ff1916905591925016611cb083611c9f84670de0b6b3a7640000614fca565b6001600160a01b0384169190612fa6565b5050505050505050565b6000805481906001600160a01b03163314611ce75760405162461bcd60e51b815260040161062590614f7d565b505060009283526003602090815260408085209385529281528284206001600160a01b0392909216845252902080546004909101549091565b6000546001600160a01b03163314611d4a5760405162461bcd60e51b815260040161062590614f7d565b611d53816136e7565b60405181907ff8cff203664824068f2b9b06611412aa2f566078fb8d0ffdbbc9eb3b11042b1890600090a250565b60008381526007602052604090205483906001600160a01b03163314611db95760405162461bcd60e51b815260040161062590614eeb565b60005b8351811015611e8257600260008681526020019081526020016000206000858381518110611dec57611dec615063565b602090810291909101810151825281810192909252604090810160009081206001600160a01b038716825290925290206002015460ff16611e7057611e4b85858381518110611e3d57611e3d615063565b60200260200101518561372f565b611e7085858381518110611e6157611e61615063565b6020026020010151600161381a565b80611e7a81615079565b915050611dbc565b5082604051611e9191906151d9565b6040519081900381206001600160a01b03841682529085907f9a216858427510cee32fa43343eb4bf300aa4519cd643dc4e011f580b7b42dba9060200161182a565b600060026001541415611ef85760405162461bcd60e51b815260040161062590614fe9565b6002600155336001600160a01b03831614611f555760405162461bcd60e51b815260206004820152601b60248201527f4f6e6c7920436f6c6c61626f7261746f722043616e2043616c6c2100000000006044820152606401610625565b6001600160a01b038216600090815260066020908152604080832086845290915290205460ff1615611f8657600080fd5b600084815260036020908152604080832086845282528083206001600160a01b03861684529091529020600501546301000000900460ff1615611ff65760405162461bcd60e51b81526020600482015260086024820152671351d40814185a5960c21b6044820152606401610625565b600084815260036020908152604080832086845282528083206001600160a01b038616845290915290206005015460ff161515600114156120785761203c8484846132f9565b600085815260046020908152604080832087845290915281206002018054929350839290919061206d908490614fb2565b909155506120859050565b6120828484613872565b90505b600084815260036020908152604080832086845282528083206001600160a01b03861684529091529020600501805463ff000000191663010000001790556120cd848261318f565b6040805133815260208101839052849186917f054995f20a80507930fd26d74d6e3b500a33f8d385d451442d3933784a78ab789101611a26565b60008581526007602052604090205485906001600160a01b0316331461213f5760405162461bcd60e51b815260040161062590614eeb565b60005b84518110156121815761216f878787848151811061216257612162615063565b6020026020010151611480565b8061217981615079565b915050612142565b5060005b83518110156121c4576121b287878684815181106121a5576121a5615063565b6020026020010151610b9a565b806121bc81615079565b915050612185565b5060008681526004602090815260408083208884529091528120600281015490546121ef9190614f44565b90506121fb87826138da565b6122058787613929565b50505050505050565b808051600014156122315760405162461bcd60e51b815260040161062590615020565b60008581526007602052604090205485906001600160a01b031633146122695760405162461bcd60e51b815260040161062590614eeb565b82518451146122d95760405162461bcd60e51b815260206004820152603660248201527f636f6c6c61626f7261746f727320616e64204d47507320617272617973206c656044820152756e6774687320617265206e6f74207468652073616d6560501b6064820152608401610625565b6000805b8551811015612397578481815181106122f8576122f8615063565b6020026020010151600014156123205760405162461bcd60e51b81526004016106259061520f565b84818151811061233257612332615063565b6020026020010151826123459190614fb2565b9150612385888888848151811061235e5761235e615063565b602002602001015188858151811061237857612378615063565b602002602001015161397a565b8061238f81615079565b9150506122dd565b506123a58787875184613a0b565b85877f52cff2fe3c65f7bcbd2a088f52ac58c0f5faeb93e1f95a70885406062cba39478787604051611253929190615136565b60008481526007602052604090205484906001600160a01b031633146124105760405162461bcd60e51b815260040161062590614eeb565b60005b845181101561274d5760046000878152602001908152602001600020600086838151811061244357612443615063565b6020026020010151815260200190815260200160002060090154600014612506576124888686838151811061247a5761247a615063565b602002602001015186610b9a565b60008681526002602052604081208651600192908890859081106124ae576124ae615063565b602002602001015181526020019081526020016000206000866001600160a01b03166001600160a01b0316815260200190815260200160002060040160006101000a81548160ff02191690831515021790555061273b565b60046000878152602001908152602001600020600086838151811061252d5761252d615063565b60200260200101518152602001908152602001600020600901546000141561273b5760026000878152602001908152602001600020600086838151811061257657612576615063565b602002602001015181526020019081526020016000206000856001600160a01b03166001600160a01b03168152602001908152602001600020600301546004600088815260200190815260200160002060008784815181106125da576125da615063565b6020026020010151815260200190815260200160002060010160008282546126029190614f44565b909155505060008681526002602052604081208651829088908590811061262b5761262b615063565b602002602001015181526020019081526020016000206000866001600160a01b03166001600160a01b0316815260200190815260200160002060000181905550600160046000888152602001908152602001600020600087848151811061269457612694615063565b60200260200101518152602001908152602001600020600a0160008282546126bc9190614f44565b909155505060008681526002602052604081208651600192908890859081106126e7576126e7615063565b602002602001015181526020019081526020016000206000866001600160a01b03166001600160a01b0316815260200190815260200160002060040160006101000a81548160ff0219169083151502179055505b8061274581615079565b915050612413565b505050505050565b60008481526007602052604090205484906001600160a01b0316331461278d5760405162461bcd60e51b815260040161062590614eeb565b816127da5760405162461bcd60e51b815260206004820152601b60248201527f7a65726f206c656e677468206f627365727665727320617272617900000000006044820152606401610625565b60005b828110156128285761281686868686858181106127fc576127fc615063565b90506020020160208101906128119190614b7f565b61372f565b8061282081615079565b9150506127dd565b5061283485858461381a565b83857fb1cc0cc3834b00e41fce4d1b26e0683b2457f753ec2683b88651d001476a6e388585604051612867929190615246565b60405180910390a35050505050565b6000546001600160a01b031633146128a05760405162461bcd60e51b815260040161062590614f7d565b6128ac84848484613493565b50604080516001600160a01b03841681528215156020820152849186917ff2ff33fad1776fa8cd9485a244405ed4ba9447d95bfa27ef13f1964609f89e30910161182a565b60008581526007602052604081205486906001600160a01b031633146129295760405162461bcd60e51b815260040161062590614eeb565b85806129475760405162461bcd60e51b81526004016106259061520f565b612952886000613a6b565b9250612961888489888a613ada565b6000888152600760205260408120600101546001600160a01b03169086612988898b614fb2565b6129929190614fb2565b90506129a08a876001613b70565b6008546129e09033906001600160a01b03166129bd846005614fca565b6129ce90662386f26fc10000614fca565b6001600160a01b038616929190613bc6565b604080518a8152602081018a905286918c917f8bd3f0382da5856756cd40562f205ab46df1ddb7a1b8c4a9770d37dcf357a2b6910160405180910390a35050505095945050505050565b80805160001415612a4d5760405162461bcd60e51b815260040161062590615020565b6000546001600160a01b03163314612a775760405162461bcd60e51b815260040161062590614f7d565b60005b8251811015612ab757612aa5838281518110612a9857612a98615063565b60200260200101516136e7565b80612aaf81615079565b915050612a7a565b507fbb862746377a3486853c2ecbc4104f115265cec73f3f50631cc62cf20f65dbb182604051610a679190615287565b60008180612b075760405162461bcd60e51b81526004016106259061520f565b612b0f613c04565b9150612b1c828585613c6c565b604080513381526001600160a01b038616602082015290810184905282907fe13f31eeb084676e55593cb99c5bef76fadde467d9bc2653f56a4c9c3f3302c69060600160405180910390a26001600160a01b03841615612baa5760405182907ff8cff203664824068f2b9b06611412aa2f566078fb8d0ffdbbc9eb3b11042b1890600090a2612baa82613cca565b5092915050565b60008481526007602052604090205484906001600160a01b03163314612be95760405162461bcd60e51b815260040161062590614eeb565b8180612c075760405162461bcd60e51b81526004016106259061520f565b600086815260036020908152604080832088845282528083206001600160a01b03881684529091529020600501546301000000900460ff1615612c8c5760405162461bcd60e51b815260206004820152601a60248201527f416c726561647920416464656420416e64204d475020506169640000000000006044820152606401610625565b612c988686868661397a565b612ca58686600186613a0b565b604080516001600160a01b038616815260208101859052869188917f8aa39f8fa6c78a00b31a805b7955eb3e38d4cb7bd4d87c84655269141bd8477e910160405180910390a3505050505050565b6000546001600160a01b03163314612d1d5760405162461bcd60e51b815260040161062590614f7d565b6001600160a01b038116612d825760405162461bcd60e51b815260206004820152602660248201527f4f776e61626c653a206e6577206f776e657220697320746865207a65726f206160448201526564647265737360d01b6064820152608401610625565b612d8b816133d3565b50565b6000838152600760205260409020546001600160a01b0316331480612dd15750600082815260056020908152604080832033845290915290205460ff1615156001145b612dda57600080fd5b600083815260036020908152604080832085845282528083206001600160a01b03851684529091529020600501805462ff0000191662010000179055612e208282613d65565b505050565b60008181526007602052604090205481906001600160a01b03163314612e5d5760405162461bcd60e51b815260040161062590614eeb565b612e6682613cca565b5050565b6001600160a01b038116612e905760405162461bcd60e51b81526004016106259061529a565b600083815260036020908152604080832085845282528083206001600160a01b0385168452909152908190209051634ab727f960e11b8152600481019190915273__$657e033041382a4f192d963c47e3057c13$__9063956e4ff2906024015b60006040518083038186803b158015612f0857600080fd5b505af4158015612205573d6000803e3d6000fd5b6001600160a01b038116612f425760405162461bcd60e51b81526004016106259061529a565b600083815260036020908152604080832085845282528083206001600160a01b0385168452909152908190209051630611f9d560e11b8152600481019190915273__$657e033041382a4f192d963c47e3057c13$__90630c23f3aa90602401612ef0565b6040516001600160a01b038316602482015260448101829052612e2090849063a9059cbb60e01b906064015b60408051601f198184030181529190526020810180516001600160e01b03166001600160e01b031990931692909217909152613dc4565b60006130158383613e96565b600084815260076020526040908190209051637465f0c360e01b815291925073__$6757bfac40183a10fb97970c51d4ae839f$__91637465f0c391613067918590600401918252602082015260400190565b60006040518083038186803b15801561307f57600080fd5b505af4158015613093573d6000803e3d6000fd5b5050505092915050565b60008281526002602090815260408083208484528252808320338452909152812080546130ff5760405162461bcd60e51b815260206004820152601060248201526f37379039bab1b41037b139b2b93b32b960811b6044820152606401610625565b6001810154156131495760405162461bcd60e51b81526020600482015260156024820152741bd89cd95c9d995c88185b1c9958591e481c185a59605a1b6044820152606401610625565b426001808301919091556002909101805460ff191690911790555060005b92915050565b600082815260046020908152604080832084845290915281206109fa90613f21565b600082815260076020526040908190209051630de4e00d60e41b815260048101919091526024810182905273__$6757bfac40183a10fb97970c51d4ae839f$__9063de4e00d0906044015b60006040518083038186803b1580156131f257600080fd5b505af415801561274d573d6000803e3d6000fd5b600084815260036020908152604080832086845282528083206001600160a01b038616845290915290819020905163c98a93eb60e01b815260048101919091526024810182905273__$657e033041382a4f192d963c47e3057c13$__9063c98a93eb906044015b60006040518083038186803b15801561328557600080fd5b505af4158015611cb0573d6000803e3d6000fd5b6000848152600460208181526040808420878552909152918290209151632820697960e11b815290810191909152602481018390526044810182905273__$5edc4b18468a87c0ff4ea3e97c0fbd8a67$__90635040d2f29060640161326d565b600083815260036020908152604080832085845282528083206001600160a01b0385168452909152808220905163290395ad60e21b8152600481019190915273__$657e033041382a4f192d963c47e3057c13$__9063a40e56b490602401602060405180830381865af4158015613374573d6000803e3d6000fd5b505050506040513d601f19601f8201168201806040525081019061339891906152d1565b949350505050565b600083815260036020908152604080832085845282528083206001600160a01b03851684529091529020612e209061400d565b600080546001600160a01b038381166001600160a01b0319831681178455604051919092169283917f8be0079c531659141344cd1fd0a4f28419497f9722a3daafe3b4186f6b6457e09190a35050565b60008181526007602052604090819020905163193ec60f60e31b8152600481019190915273__$6757bfac40183a10fb97970c51d4ae839f$__9063c9f63078906024015b60006040518083038186803b15801561347f57600080fd5b505af4158015610db3573d6000803e3d6000fd5b60008115613544576000858152600760205260409020546001600160a01b03163314806134d95750336134ce6000546001600160a01b031690565b6001600160a01b0316145b61353f5760405162461bcd60e51b815260206004820152603160248201527f63616c6c6572206973206e6f74207468652070726f6a65637420696e697469616044820152703a37b9103737b9103a34329037bbb732b960791b6064820152608401610625565b6135ad565b336135576000546001600160a01b031690565b6001600160a01b0316146135ad5760405162461bcd60e51b815260206004820152601760248201527f63616c6c6572206973206e6f7420746865206f776e65720000000000000000006044820152606401610625565b6135b9858585856140df565b95945050505050565b60008381526004602081815260408084208685529091529182902091516356120d2160e11b815273__$5edc4b18468a87c0ff4ea3e97c0fbd8a67$__9263ac241a429261361a92869101918252602082015260400190565b60006040518083038186803b15801561363257600080fd5b505af4158015613646573d6000803e3d6000fd5b50505050612e208383336133a0565b60008381526004602081815260408084208685529091529182902091516356120d2160e11b815273__$5edc4b18468a87c0ff4ea3e97c0fbd8a67$__9263ac241a42926136ad92869101918252602082015260400190565b60006040518083038186803b1580156136c557600080fd5b505af41580156136d9573d6000803e3d6000fd5b50505050612e2083836141b7565b600081815260076020526040908190209051635fbc6a0560e01b8152600481019190915273__$6757bfac40183a10fb97970c51d4ae839f$__90635fbc6a0590602401613467565b6001600160a01b0381166137855760405162461bcd60e51b815260206004820152601860248201527f6f627365727665722061646472657373206973207a65726f00000000000000006044820152606401610625565b600083815260026020908152604080832085845282528083206001600160a01b03851684529091529020805415806137c25750600281015460ff16155b6138075760405162461bcd60e51b81526020600482015260166024820152751bd89cd95c9d995c88185b1c9958591e48185919195960521b6044820152606401610625565b428155600401805460ff19169055505050565b6000838152600460208181526040808420868552909152918290209151638e6d410960e01b815273__$5edc4b18468a87c0ff4ea3e97c0fbd8a67$__92638e6d410992612ef092869101918252602082015260400190565b600061387e83836141e1565b600084815260046020818152604080842087855290915291829020915163d64e7f3b60e01b8152908101919091526024810182905290915073__$5edc4b18468a87c0ff4ea3e97c0fbd8a67$__9063d64e7f3b90604401613067565b60008281526007602052604090819020905163b5da924360e01b815260048101919091526024810182905273__$6757bfac40183a10fb97970c51d4ae839f$__9063b5da9243906044016131da565b600082815260046020818152604080842085855290915291829020915163a7e03d8360e01b815273__$5edc4b18468a87c0ff4ea3e97c0fbd8a67$__9263a7e03d83926131da920190815260200190565b6001600160a01b0382166139a05760405162461bcd60e51b81526004016106259061529a565b600084815260036020908152604080832086845282528083206001600160a01b03861684529091529081902090516318127f4360e21b815260048101919091526024810182905273__$657e033041382a4f192d963c47e3057c13$__90636049fd0c9060440161326d565b60008481526004602081815260408084208785529091529182902091516330637fff60e21b815290810191909152602481018390526044810182905273__$5edc4b18468a87c0ff4ea3e97c0fbd8a67$__9063c18dfffc9060640161326d565b6000613a768261423b565b6000848152600460209081526040808320848452909152902060080154909150156131675760405162461bcd60e51b8152602060048201526014602482015273191d5c1b1a58d85d19481c1858dad859d9481a5960621b6044820152606401610625565b60008581526004602081815260408084208885529091528083208151639ec8618b60e01b8152928301526024820186905260448201859052606482018490525173__$5edc4b18468a87c0ff4ea3e97c0fbd8a67$__92639ec8618b9260848082019391829003018186803b158015613b5157600080fd5b505af4158015613b65573d6000803e3d6000fd5b505050505050505050565b60008381526007602052604090819020905163890e6ec160e01b81526004810191909152602481018390526044810182905273__$6757bfac40183a10fb97970c51d4ae839f$__9063890e6ec190606401612ef0565b6040516001600160a01b0380851660248301528316604482015260648101829052613bfe9085906323b872dd60e01b90608401612fd2565b50505050565b6000613c10600061423b565b60008181526007602052604090206005015490915015613c695760405162461bcd60e51b8152602060048201526014602482015273191d5c1b1a58d85d19481c1c9bda9958dd081a5960621b6044820152606401610625565b90565b600083815260076020526040908190209051638d30842360e01b815260048101919091526001600160a01b03831660248201526044810182905273__$6757bfac40183a10fb97970c51d4ae839f$__90638d30842390606401612ef0565b600081815260076020526040902060020154600854600b54613cfc9184916001600160a01b0391821691859116614293565b60405182907f12962f2a364d2a11057d83ee13838ccc9ef2cfcabf5948f69117d12676f7fb9790600090a2817f8b0b8ce00dcdbcb843007b1437781e3750ec903ce601ab2876a0a8acfa236e7e82604051613d5991815260200190565b60405180910390a25050565b6001600160a01b038116600090815260066020908152604080832085845290915290205460ff1615613d9657600080fd5b6001600160a01b0316600090815260066020908152604080832093835292905220805460ff19166001179055565b6000613e19826040518060400160405280602081526020017f5361666545524332303a206c6f772d6c6576656c2063616c6c206661696c6564815250856001600160a01b03166142f99092919063ffffffff16565b805190915015612e205780806020019051810190613e3791906152ea565b612e205760405162461bcd60e51b815260206004820152602a60248201527f5361666545524332303a204552433230206f7065726174696f6e20646964206e6044820152691bdd081cdd58d8d9595960b21b6064820152608401610625565b600082815260046020818152604080842085855290915280832090516368f47d8560e01b81529182015273__$5edc4b18468a87c0ff4ea3e97c0fbd8a67$__906368f47d85906024015b602060405180830381865af4158015613efd573d6000803e3d6000fd5b505050506040513d601f19601f820116820180604052508101906109fa91906152d1565b600081806008015460001415613f6b5760405162461bcd60e51b815260206004820152600f60248201526e6e6f2073756368207061636b61676560881b6044820152606401610625565b6009830154613fbc5760405162461bcd60e51b815260206004820152601760248201527f7061636b616765206973206e6f742066696e69736865640000000000000000006044820152606401610625565b82600a01548360030154613fd09190614f5b565b915081836002016000828254613fe69190614fb2565b92505081905550818360040160008282546140019190614fb2565b90915550919392505050565b805481906140545760405162461bcd60e51b815260206004820152601460248201527337379039bab1b41031b7b63630b137b930ba37b960611b6044820152606401610625565b600582015460ff6101009091041615156001148061407f57506005820154640100000000900460ff16155b6140c45760405162461bcd60e51b8152602060048201526016602482015275189bdb9d5cc8185b1c9958591e48185c1c1c9bdd995960521b6044820152606401610625565b5060058101805461ff00191661010017905542600390910155565b60006140ed85858585614308565b6000868152600460208181526040808420898552909152918290209151637aa05e7560e11b81529081019190915283151560248201526044810182905290915073__$5edc4b18468a87c0ff4ea3e97c0fbd8a67$__9063f540bcea9060640160006040518083038186803b15801561416457600080fd5b505af4158015614178573d6000803e3d6000fd5b5050505081156133985760008481526005602090815260408083206001600160a01b03871684529091529020805460ff19166001179055949350505050565b600082815260036020908152604080832084845282528083203384529091529020612e6690614407565b600082815260036020908152604080832084845282528083203384529091528082209051632011c28160e01b8152600481019190915273__$657e033041382a4f192d963c47e3057c13$__90632011c28190602401613ee0565b600033614249600143614f44565b60405160609290921b6bffffffffffffffffffffffff1916602083015240603482015260548101839052607401604051602081830303815290604052805190602001209050919050565b600084815260076020526040908190209051634afeffa760e01b815260048101919091526001600160a01b038085166024830152604482018490528216606482015273__$6757bfac40183a10fb97970c51d4ae839f$__90634afeffa79060840161326d565b606061339884846000856144e6565b600084815260036020908152604080832086845282528083206001600160a01b03861684529091529081902080549151630e0d216760e11b81526004810191909152821515602482015273__$657e033041382a4f192d963c47e3057c13$__90631c1a42ce9060440160006040518083038186803b15801561438957600080fd5b505af415801561439d573d6000803e3d6000fd5b505050508161339857600085815260036020818152604080842088855282528084206001600160a01b0388168552909152822082815560018101839055600281018390559081018290556004810191909155600501805465ffffffffffff19169055949350505050565b8054819061444e5760405162461bcd60e51b815260206004820152601460248201527337379039bab1b41031b7b63630b137b930ba37b960611b6044820152606401610625565b60048201546144955760405162461bcd60e51b8152602060048201526013602482015272626f6e75732073636f7265206973207a65726f60681b6044820152606401610625565b6003820154156144dc5760405162461bcd60e51b8152602060048201526012602482015271189bdb9d5cc8185b1c9958591e481c185a5960721b6044820152606401610625565b5042600390910155565b6060824710156145475760405162461bcd60e51b815260206004820152602660248201527f416464726573733a20696e73756666696369656e742062616c616e636520666f6044820152651c8818d85b1b60d21b6064820152608401610625565b6001600160a01b0385163b61459e5760405162461bcd60e51b815260206004820152601d60248201527f416464726573733a2063616c6c20746f206e6f6e2d636f6e74726163740000006044820152606401610625565b600080866001600160a01b031685876040516145ba9190615333565b60006040518083038185875af1925050503d80600081146145f7576040519150601f19603f3d011682016040523d82523d6000602084013e6145fc565b606091505b509150915061460c828286614617565b979650505050505050565b606083156146265750816109fa565b8251156146365782518084602001fd5b8160405162461bcd60e51b8152600401610625919061534f565b80356001600160a01b038116811461466757600080fd5b919050565b8015158114612d8b57600080fd5b6000806000806080858703121561469057600080fd5b84359350602085013592506146a760408601614650565b915060608501356146b78161466c565b939692955090935050565b600080604083850312156146d557600080fd5b50508035926020909101359150565b600061020082019050835182526020840151602083015260408401516040830152606084015160608301526080840151608083015260a084015160a083015260c084015160c083015260e084015160e08301526101008085015181840152506101208085015181840152506101408085015181840152506101608085015181840152506101808085015181840152506101a0808501516147878285018215159052565b50506101c093840151938201939093526101e0015290565b6000806000606084860312156147b457600080fd5b83359250602084013591506147cb60408501614650565b90509250925092565b600061016082019050825182526020830151602083015260408301516040830152606083015160608301526080830151608083015260a083015161481c60a084018215159052565b5060c083015161483060c084018215159052565b5060e083015161484460e084018215159052565b506101008381015115159083015261012080840151151590830152610140928301511515929091019190915290565b60006020828403121561488557600080fd5b5035919050565b81516001600160a01b03168152610180810160208301516148b860208401826001600160a01b03169052565b5060408301516148cc604084018215159052565b50606083015160608301526080830151608083015260a083015160a083015260c083015160c083015260e083015160e083015261010080840151818401525061012080840151818401525061014080840151818401525061016080840151818401525092915050565b634e487b7160e01b600052604160045260246000fd5b604051601f8201601f1916810167ffffffffffffffff8111828210171561497457614974614935565b604052919050565b600067ffffffffffffffff82111561499657614996614935565b5060051b60200190565b600082601f8301126149b157600080fd5b813560206149c66149c18361497c565b61494b565b82815260059290921b840181019181810190868411156149e557600080fd5b8286015b84811015614a0057803583529183019183016149e9565b509695505050505050565b60008060408385031215614a1e57600080fd5b82359150602083013567ffffffffffffffff811115614a3c57600080fd5b614a48858286016149a0565b9150509250929050565b600082601f830112614a6357600080fd5b81356020614a736149c18361497c565b82815260059290921b84018101918181019086841115614a9257600080fd5b8286015b84811015614a0057614aa781614650565b8352918301918301614a96565b60008060008060808587031215614aca57600080fd5b843593506020808601359350604086013567ffffffffffffffff80821115614af157600080fd5b614afd89838a01614a52565b94506060880135915080821115614b1357600080fd5b508601601f81018813614b2557600080fd5b8035614b336149c18261497c565b81815260059190911b8201830190838101908a831115614b5257600080fd5b928401925b82841015614b7057833582529284019290840190614b57565b979a9699509497505050505050565b600060208284031215614b9157600080fd5b6109fa82614650565b600082601f830112614bab57600080fd5b81356020614bbb6149c18361497c565b82815260059290921b84018101918181019086841115614bda57600080fd5b8286015b84811015614a00578035614bf18161466c565b8352918301918301614bde565b60008060008060808587031215614c1457600080fd5b8435935060208501359250604085013567ffffffffffffffff80821115614c3a57600080fd5b614c4688838901614a52565b93506060870135915080821115614c5c57600080fd5b50614c6987828801614b9a565b91505092959194509250565b600080600060608486031215614c8a57600080fd5b83359250602084013567ffffffffffffffff811115614ca857600080fd5b614cb4868287016149a0565b9250506147cb60408501614650565b600080600080600060a08688031215614cdb57600080fd5b8535945060208601359350604086013567ffffffffffffffff80821115614d0157600080fd5b614d0d89838a01614a52565b94506060880135915080821115614d2357600080fd5b50614d3088828901614a52565b95989497509295608001359392505050565b60008060008060808587031215614d5857600080fd5b84359350602085013567ffffffffffffffff80821115614d7757600080fd5b614d83888389016149a0565b9450614c4660408801614650565b60008060008060608587031215614da757600080fd5b8435935060208501359250604085013567ffffffffffffffff80821115614dcd57600080fd5b818701915087601f830112614de157600080fd5b813581811115614df057600080fd5b8860208260051b8501011115614e0557600080fd5b95989497505060200194505050565b600080600080600060a08688031215614e2c57600080fd5b505083359560208501359550604085013594606081013594506080013592509050565b600060208284031215614e6157600080fd5b813567ffffffffffffffff811115614e7857600080fd5b613398848285016149a0565b60008060408385031215614e9757600080fd5b614ea083614650565b946020939093013593505050565b60008060008060808587031215614ec457600080fd5b8435935060208501359250614edb60408601614650565b9396929550929360600135925050565b60208082526023908201527f63616c6c6572206973206e6f74207468652070726f6a65637420696e697469616040820152623a37b960e91b606082015260800190565b634e487b7160e01b600052601160045260246000fd5b600082821015614f5657614f56614f2e565b500390565b600082614f7857634e487b7160e01b600052601260045260246000fd5b500490565b6020808252818101527f4f776e61626c653a2063616c6c6572206973206e6f7420746865206f776e6572604082015260600190565b60008219821115614fc557614fc5614f2e565b500190565b6000816000190483118215151615614fe457614fe4614f2e565b500290565b6020808252601f908201527f5265656e7472616e637947756172643a207265656e7472616e742063616c6c00604082015260600190565b60208082526023908201527f6172726179206c656e677468206d75737420626520677265617465722074686160408201526206e20360ec1b606082015260800190565b634e487b7160e01b600052603260045260246000fd5b600060001982141561508d5761508d614f2e565b5060010190565b600081518084526020808501945080840160005b838110156150c4578151875295820195908201906001016150a8565b509495945050505050565b6060815260006150e26060830186615094565b6001600160a01b039490941660208301525060400152919050565b600081518084526020808501945080840160005b838110156150c45781516001600160a01b031687529582019590820190600101615111565b60408152600061514960408301856150fd565b82810360208481019190915284518083528582019282019060005b8181101561518057845183529383019391830191600101615164565b5090979650505050505050565b6040815260006151a060408301856150fd565b82810360208481019190915284518083528582019282019060005b818110156151805784511515835293830193918301916001016151bb565b815160009082906020808601845b83811015615203578151855293820193908201906001016151e7565b50929695505050505050565b6020808252601d908201527f616d6f756e74206d7573742062652067726561746572207468616e2030000000604082015260600190565b60208082528181018390526000908460408401835b86811015614a00576001600160a01b0361527484614650565b168252918301919083019060010161525b565b6020815260006109fa6020830184615094565b6020808252601e908201527f636f6c6c61626f7261746f7227732061646472657373206973207a65726f0000604082015260600190565b6000602082840312156152e357600080fd5b5051919050565b6000602082840312156152fc57600080fd5b81516109fa8161466c565b60005b8381101561532257818101518382015260200161530a565b83811115613bfe5750506000910152565b60008251615345818460208701615307565b9190910192915050565b602081526000825180602084015261536e816040850160208701615307565b601f01601f1916919091016040019291505056fea26469706673582212200d2fdca2368ded656857cce4f3603e688b53e1bdc7799d0fb1d9e39ca31fdbd464736f6c634300080b0033",
  "linkReferences": {
    "contracts/libraries/CollaboratorLibrary.sol": {
      "CollaboratorLibrary": [
        {
          "length": 20,
          "start": 12500
        },
        {
          "length": 20,
          "start": 12678
        },
        {
          "length": 20,
          "start": 13393
        },
        {
          "length": 20,
          "start": 13628
        },
        {
          "length": 20,
          "start": 15339
        },
        {
          "length": 20,
          "start": 17435
        },
        {
          "length": 20,
          "start": 17750
        }
      ]
    },
    "contracts/libraries/PackageLibrary.sol": {
      "PackageLibrary": [
        {
          "length": 20,
          "start": 13529
        },
        {
          "length": 20,
          "start": 14317
        },
        {
          "length": 20,
          "start": 14464
        },
        {
          "length": 20,
          "start": 14917
        },
        {
          "length": 20,
          "start": 15034
        },
        {
          "length": 20,
          "start": 15188
        },
        {
          "length": 20,
          "start": 15435
        },
        {
          "length": 20,
          "start": 15646
        },
        {
          "length": 20,
          "start": 16580
        },
        {
          "length": 20,
          "start": 17201
        }
      ]
    },
    "contracts/libraries/ProjectLibrary.sol": {
      "ProjectLibrary": [
        {
          "length": 20,
          "start": 12856
        },
        {
          "length": 20,
          "start": 13246
        },
        {
          "length": 20,
          "start": 13899
        },
        {
          "length": 20,
          "start": 14607
        },
        {
          "length": 20,
          "start": 15113
        },
        {
          "length": 20,
          "start": 15782
        },
        {
          "length": 20,
          "start": 16042
        },
        {
          "length": 20,
          "start": 17625
        }
      ]
    }
  },
  "deployedLinkReferences": {
    "contracts/libraries/CollaboratorLibrary.sol": {
      "CollaboratorLibrary": [
        {
          "length": 20,
          "start": 11986
        },
        {
          "length": 20,
          "start": 12164
        },
        {
          "length": 20,
          "start": 12879
        },
        {
          "length": 20,
          "start": 13114
        },
        {
          "length": 20,
          "start": 14825
        },
        {
          "length": 20,
          "start": 16921
        },
        {
          "length": 20,
          "start": 17236
        }
      ]
    },
    "contracts/libraries/PackageLibrary.sol": {
      "PackageLibrary": [
        {
          "length": 20,
          "start": 13015
        },
        {
          "length": 20,
          "start": 13803
        },
        {
          "length": 20,
          "start": 13950
        },
        {
          "length": 20,
          "start": 14403
        },
        {
          "length": 20,
          "start": 14520
        },
        {
          "length": 20,
          "start": 14674
        },
        {
          "length": 20,
          "start": 14921
        },
        {
          "length": 20,
          "start": 15132
        },
        {
          "length": 20,
          "start": 16066
        },
        {
          "length": 20,
          "start": 16687
        }
      ]
    },
    "contracts/libraries/ProjectLibrary.sol": {
      "ProjectLibrary": [
        {
          "length": 20,
          "start": 12342
        },
        {
          "length": 20,
          "start": 12732
        },
        {
          "length": 20,
          "start": 13385
        },
        {
          "length": 20,
          "start": 14093
        },
        {
          "length": 20,
          "start": 14599
        },
        {
          "length": 20,
          "start": 15268
        },
        {
          "length": 20,
          "start": 15528
        },
        {
          "length": 20,
          "start": 17111
        }
      ]
    }
  }
}